{
  "transactions": [
    {
      "hash": "0x39ebbacc6f7c1b46a66507c662a5c99defc34ae32258330c2d4fd3dc0d862034",
      "transactionType": "CALL",
      "contractName": null,
      "contractAddress": "0x0b010000b7624eb9b3dfbc279673c76e9d29d5f7",
      "function": "approve(address,uint256)",
      "arguments": [
        "0x1932e815254c53B3Ecd81CECf252A5AC7f0e8BeA",
        "115792089237316195423570985008687907853269984665640564039457584007913129639935"
      ],
      "transaction": {
        "from": "0x4413203299bf8bdf59f6399cd9fe94d321a68822",
        "to": "0x0b010000b7624eb9b3dfbc279673c76e9d29d5f7",
        "gas": "0x10a5c",
        "value": "0x0",
        "input": "0x095ea7b30000000000000000000000001932e815254c53b3ecd81cecf252a5ac7f0e8beaffffffffffffffffffffffffffffffffffffffffffffffffffffffffffffffff",
        "nonce": "0xd",
        "chainId": "0x1"
      },
      "additionalContracts": [],
      "isFixedGasLimit": false
    },
    {
      "hash": "0x50d15c313d85f6fbc36fe2bcb6cb650096efe12863d64671f2e68ec2a73687e5",
      "transactionType": "CALL",
      "contractName": "RebasingStakedObol",
      "contractAddress": "0x1932e815254c53b3ecd81cecf252a5ac7f0e8bea",
      "function": "claimAndDistributeReward(address,uint256,uint256[])",
      "arguments": [
        "0x4413203299bf8bdF59f6399cd9Fe94d321A68822",
        "2200000000000000000000",
        "[1, 2, 3, 4, 5, 6, 8, 9, 10, 11, 12, 13, 14, 15, 16, 18, 20, 22, 25, 26, 27, 29, 32, 33, 34, 35, 36, 41, 45, 51, 56, 60, 67, 71, 88, 92, 94, 107, 118, 166, 173, 182, 183, 185, 186, 187, 189, 191, 192, 194, 197, 198, 199, 204, 206, 207]"
      ],
      "transaction": {
        "from": "0x4413203299bf8bdf59f6399cd9fe94d321a68822",
        "to": "0x1932e815254c53b3ecd81cecf252a5ac7f0e8bea",
        "gas": "0x4ce96a",
        "value": "0x0",
        "input": "0x0cbeab6d0000000000000000000000004413203299bf8bdf59f6399cd9fe94d321a68822000000000000000000000000000000000000000000000077432217e6836000000000000000000000000000000000000000000000000000000000000000000060000000000000000000000000000000000000000000000000000000000000003800000000000000000000000000000000000000000000000000000000000000010000000000000000000000000000000000000000000000000000000000000002000000000000000000000000000000000000000000000000000000000000000300000000000000000000000000000000000000000000000000000000000000040000000000000000000000000000000000000000000000000000000000000005000000000000000000000000000000000000000000000000000000000000000600000000000000000000000000000000000000000000000000000000000000080000000000000000000000000000000000000000000000000000000000000009000000000000000000000000000000000000000000000000000000000000000a000000000000000000000000000000000000000000000000000000000000000b000000000000000000000000000000000000000000000000000000000000000c000000000000000000000000000000000000000000000000000000000000000d000000000000000000000000000000000000000000000000000000000000000e000000000000000000000000000000000000000000000000000000000000000f00000000000000000000000000000000000000000000000000000000000000100000000000000000000000000000000000000000000000000000000000000012000000000000000000000000000000000000000000000000000000000000001400000000000000000000000000000000000000000000000000000000000000160000000000000000000000000000000000000000000000000000000000000019000000000000000000000000000000000000000000000000000000000000001a000000000000000000000000000000000000000000000000000000000000001b000000000000000000000000000000000000000000000000000000000000001d000000000000000000000000000000000000000000000000000000000000002000000000000000000000000000000000000000000000000000000000000000210000000000000000000000000000000000000000000000000000000000000022000000000000000000000000000000000000000000000000000000000000002300000000000000000000000000000000000000000000000000000000000000240000000000000000000000000000000000000000000000000000000000000029000000000000000000000000000000000000000000000000000000000000002d00000000000000000000000000000000000000000000000000000000000000330000000000000000000000000000000000000000000000000000000000000038000000000000000000000000000000000000000000000000000000000000003c000000000000000000000000000000000000000000000000000000000000004300000000000000000000000000000000000000000000000000000000000000470000000000000000000000000000000000000000000000000000000000000058000000000000000000000000000000000000000000000000000000000000005c000000000000000000000000000000000000000000000000000000000000005e000000000000000000000000000000000000000000000000000000000000006b000000000000000000000000000000000000000000000000000000000000007600000000000000000000000000000000000000000000000000000000000000a600000000000000000000000000000000000000000000000000000000000000ad00000000000000000000000000000000000000000000000000000000000000b600000000000000000000000000000000000000000000000000000000000000b700000000000000000000000000000000000000000000000000000000000000b900000000000000000000000000000000000000000000000000000000000000ba00000000000000000000000000000000000000000000000000000000000000bb00000000000000000000000000000000000000000000000000000000000000bd00000000000000000000000000000000000000000000000000000000000000bf00000000000000000000000000000000000000000000000000000000000000c000000000000000000000000000000000000000000000000000000000000000c200000000000000000000000000000000000000000000000000000000000000c500000000000000000000000000000000000000000000000000000000000000c600000000000000000000000000000000000000000000000000000000000000c700000000000000000000000000000000000000000000000000000000000000cc00000000000000000000000000000000000000000000000000000000000000ce00000000000000000000000000000000000000000000000000000000000000cf",
        "nonce": "0xe",
        "chainId": "0x1"
      },
      "additionalContracts": [],
      "isFixedGasLimit": false
    }
  ],
  "receipts": [
    {
      "status": "0x1",
      "cumulativeGasUsed": "0x10022f7",
      "logs": [
        {
          "address": "0x0b010000b7624eb9b3dfbc279673c76e9d29d5f7",
          "topics": [
            "0x8c5be1e5ebec7d5bd14f71427d1e84f3dd0314c0f7b2291e5b200ac8c7c3b925",
            "0x0000000000000000000000004413203299bf8bdf59f6399cd9fe94d321a68822",
            "0x0000000000000000000000001932e815254c53b3ecd81cecf252a5ac7f0e8bea"
          ],
          "data": "0xffffffffffffffffffffffffffffffffffffffffffffffffffffffffffffffff",
          "blockHash": "0x8231a46d36de93e03d7117c38078d845ac62aa52c361c6110bc82d33851cb8c3",
          "blockNumber": "0x1566d3d",
          "blockTimestamp": "0x681d18bb",
          "transactionHash": "0x39ebbacc6f7c1b46a66507c662a5c99defc34ae32258330c2d4fd3dc0d862034",
          "transactionIndex": "0x11a",
          "logIndex": "0x191",
          "removed": false
        }
      ],
      "logsBloom": "0x00040000000000000000000000000000000000000000000000000000000000000000000000000000000000000000000010000000000000100000000000200000000000000000000000000000000200040000000000000000000000000000000000000000000000000000000000000000080000000000000000000000000000000000008000000000000000000000000000000000000000000000000000000000020000000000000000000000000000000000000000000000000000000000000000000000000000000004000000000000000000000000000000000000000000002010000000000000000000000000000000000000000000000000000000000000",
      "type": "0x2",
      "transactionHash": "0x39ebbacc6f7c1b46a66507c662a5c99defc34ae32258330c2d4fd3dc0d862034",
      "transactionIndex": "0x11a",
      "blockHash": "0x8231a46d36de93e03d7117c38078d845ac62aa52c361c6110bc82d33851cb8c3",
      "blockNumber": "0x1566d3d",
      "gasUsed": "0xb621",
      "effectiveGasPrice": "0x2147810b1",
      "from": "0x4413203299bf8bdf59f6399cd9fe94d321a68822",
      "to": "0x0b010000b7624eb9b3dfbc279673c76e9d29d5f7",
      "contractAddress": null
    },
    {
      "status": "0x1",
      "cumulativeGasUsed": "0x137d1bf",
      "logs": [
        {
          "address": "0x0b010000b7624eb9b3dfbc279673c76e9d29d5f7",
          "topics": [
            "0xddf252ad1be2c89b69c2b068fc378daa952ba7f163c4a11628f55a4df523b3ef",
            "0x0000000000000000000000004413203299bf8bdf59f6399cd9fe94d321a68822",
            "0x0000000000000000000000001932e815254c53b3ecd81cecf252a5ac7f0e8bea"
          ],
          "data": "0x000000000000000000000000000000000000000000000077432217e683600000",
          "blockHash": "0x8231a46d36de93e03d7117c38078d845ac62aa52c361c6110bc82d33851cb8c3",
          "blockNumber": "0x1566d3d",
          "blockTimestamp": "0x681d18bb",
          "transactionHash": "0x50d15c313d85f6fbc36fe2bcb6cb650096efe12863d64671f2e68ec2a73687e5",
          "transactionIndex": "0x11b",
          "logIndex": "0x192",
          "removed": false
        },
        {
          "address": "0x0b010000b7624eb9b3dfbc279673c76e9d29d5f7",
          "topics": [
            "0xddf252ad1be2c89b69c2b068fc378daa952ba7f163c4a11628f55a4df523b3ef",
            "0x0000000000000000000000001932e815254c53b3ecd81cecf252a5ac7f0e8bea",
            "0x000000000000000000000000258389b2ed8bf19b8aa1998b208a6b92154ddabd"
          ],
          "data": "0x000000000000000000000000000000000000000000000077432217e683600000",
          "blockHash": "0x8231a46d36de93e03d7117c38078d845ac62aa52c361c6110bc82d33851cb8c3",
          "blockNumber": "0x1566d3d",
          "blockTimestamp": "0x681d18bb",
          "transactionHash": "0x50d15c313d85f6fbc36fe2bcb6cb650096efe12863d64671f2e68ec2a73687e5",
          "transactionIndex": "0x11b",
          "logIndex": "0x193",
          "removed": false
        },
        {
          "address": "0x0b010000b7624eb9b3dfbc279673c76e9d29d5f7",
          "topics": [
            "0xdec2bacdd2f05b59de34da9b523dff8be42e5e38e818c82fdb0bae774387a724",
            "0x000000000000000000000000ca28852b6fc15ebd95b17c875d5eb14b08579158"
          ],
          "data": "0x000000000000000000000000000000000000000000000000e07c056495f2654e000000000000000000000000000000000000000000000078239e1d4b1952654e",
          "blockHash": "0x8231a46d36de93e03d7117c38078d845ac62aa52c361c6110bc82d33851cb8c3",
          "blockNumber": "0x1566d3d",
          "blockTimestamp": "0x681d18bb",
          "transactionHash": "0x50d15c313d85f6fbc36fe2bcb6cb650096efe12863d64671f2e68ec2a73687e5",
          "transactionIndex": "0x11b",
          "logIndex": "0x194",
          "removed": false
        },
        {
          "address": "0x30641013934ec7625c9e73a4d63aab4201004259",
          "topics": [
            "0x1a325385f16807e99fb688b597db78b00faee313dcf02e882dd16daab6fc3e1f",
            "0x0000000000000000000000000000000000000000000000000000000000000001"
          ],
          "data": "0x0000000000000000000000001932e815254c53b3ecd81cecf252a5ac7f0e8bea000000000000000000000000000000000000000000000077432217e683600000000000000000000000000000000000000000000000000078239e1d4b1952654e000000000000000000000000000000000000000000000078239e1d4b1952654e",
          "blockHash": "0x8231a46d36de93e03d7117c38078d845ac62aa52c361c6110bc82d33851cb8c3",
          "blockNumber": "0x1566d3d",
          "blockTimestamp": "0x681d18bb",
          "transactionHash": "0x50d15c313d85f6fbc36fe2bcb6cb650096efe12863d64671f2e68ec2a73687e5",
          "transactionIndex": "0x11b",
          "logIndex": "0x195",
          "removed": false
        },
        {
          "address": "0x30641013934ec7625c9e73a4d63aab4201004259",
          "topics": [
            "0xfc6ecd966b430510beae9124efe7dd517ed5286d7ed0ae258f8556c7a9765a44",
            "0x0000000000000000000000000000000000000000000000000000000000000001",
            "0x0000000000000000000000001932e815254c53b3ecd81cecf252a5ac7f0e8bea"
          ],
          "data": "0x00000000000000000000000000000000000000000000000000b8f4bcee829ef1000000000000000000000000000000000000000000000078239e1d4b1952654e",
          "blockHash": "0x8231a46d36de93e03d7117c38078d845ac62aa52c361c6110bc82d33851cb8c3",
          "blockNumber": "0x1566d3d",
          "blockTimestamp": "0x681d18bb",
          "transactionHash": "0x50d15c313d85f6fbc36fe2bcb6cb650096efe12863d64671f2e68ec2a73687e5",
          "transactionIndex": "0x11b",
          "logIndex": "0x196",
          "removed": false
        },
        {
          "address": "0x0b010000b7624eb9b3dfbc279673c76e9d29d5f7",
          "topics": [
            "0xddf252ad1be2c89b69c2b068fc378daa952ba7f163c4a11628f55a4df523b3ef",
            "0x00000000000000000000000030641013934ec7625c9e73a4d63aab4201004259",
            "0x0000000000000000000000001932e815254c53b3ecd81cecf252a5ac7f0e8bea"
          ],
          "data": "0x00000000000000000000000000000000000000000000000000b8f4bcee829ef1",
          "blockHash": "0x8231a46d36de93e03d7117c38078d845ac62aa52c361c6110bc82d33851cb8c3",
          "blockNumber": "0x1566d3d",
          "blockTimestamp": "0x681d18bb",
          "transactionHash": "0x50d15c313d85f6fbc36fe2bcb6cb650096efe12863d64671f2e68ec2a73687e5",
          "transactionIndex": "0x11b",
          "logIndex": "0x197",
          "removed": false
        },
        {
          "address": "0x30641013934ec7625c9e73a4d63aab4201004259",
          "topics": [
            "0xfc6ecd966b430510beae9124efe7dd517ed5286d7ed0ae258f8556c7a9765a44",
            "0x0000000000000000000000000000000000000000000000000000000000000002",
            "0x0000000000000000000000001932e815254c53b3ecd81cecf252a5ac7f0e8bea"
          ],
          "data": "0x000000000000000000000000000000000000000000000008612941a89847584c000000000000000000000000000000000000000000000a2b7ea32358be280000",
          "blockHash": "0x8231a46d36de93e03d7117c38078d845ac62aa52c361c6110bc82d33851cb8c3",
          "blockNumber": "0x1566d3d",
          "blockTimestamp": "0x681d18bb",
          "transactionHash": "0x50d15c313d85f6fbc36fe2bcb6cb650096efe12863d64671f2e68ec2a73687e5",
          "transactionIndex": "0x11b",
          "logIndex": "0x198",
          "removed": false
        },
        {
          "address": "0x0b010000b7624eb9b3dfbc279673c76e9d29d5f7",
          "topics": [
            "0xddf252ad1be2c89b69c2b068fc378daa952ba7f163c4a11628f55a4df523b3ef",
            "0x00000000000000000000000030641013934ec7625c9e73a4d63aab4201004259",
            "0x0000000000000000000000001932e815254c53b3ecd81cecf252a5ac7f0e8bea"
          ],
          "data": "0x000000000000000000000000000000000000000000000008612941a89847584c",
          "blockHash": "0x8231a46d36de93e03d7117c38078d845ac62aa52c361c6110bc82d33851cb8c3",
          "blockNumber": "0x1566d3d",
          "blockTimestamp": "0x681d18bb",
          "transactionHash": "0x50d15c313d85f6fbc36fe2bcb6cb650096efe12863d64671f2e68ec2a73687e5",
          "transactionIndex": "0x11b",
          "logIndex": "0x199",
          "removed": false
        },
        {
          "address": "0x30641013934ec7625c9e73a4d63aab4201004259",
          "topics": [
            "0xfc6ecd966b430510beae9124efe7dd517ed5286d7ed0ae258f8556c7a9765a44",
            "0x0000000000000000000000000000000000000000000000000000000000000003",
            "0x0000000000000000000000001932e815254c53b3ecd81cecf252a5ac7f0e8bea"
          ],
          "data": "0x0000000000000000000000000000000000000000000000050fbd571bb3a1aaf0000000000000000000000000000000000000000000000668a6981328ac53cd07",
          "blockHash": "0x8231a46d36de93e03d7117c38078d845ac62aa52c361c6110bc82d33851cb8c3",
          "blockNumber": "0x1566d3d",
          "blockTimestamp": "0x681d18bb",
          "transactionHash": "0x50d15c313d85f6fbc36fe2bcb6cb650096efe12863d64671f2e68ec2a73687e5",
          "transactionIndex": "0x11b",
          "logIndex": "0x19a",
          "removed": false
        },
        {
          "address": "0x0b010000b7624eb9b3dfbc279673c76e9d29d5f7",
          "topics": [
            "0xddf252ad1be2c89b69c2b068fc378daa952ba7f163c4a11628f55a4df523b3ef",
            "0x00000000000000000000000030641013934ec7625c9e73a4d63aab4201004259",
            "0x0000000000000000000000001932e815254c53b3ecd81cecf252a5ac7f0e8bea"
          ],
          "data": "0x0000000000000000000000000000000000000000000000050fbd571bb3a1aaf0",
          "blockHash": "0x8231a46d36de93e03d7117c38078d845ac62aa52c361c6110bc82d33851cb8c3",
          "blockNumber": "0x1566d3d",
          "blockTimestamp": "0x681d18bb",
          "transactionHash": "0x50d15c313d85f6fbc36fe2bcb6cb650096efe12863d64671f2e68ec2a73687e5",
          "transactionIndex": "0x11b",
          "logIndex": "0x19b",
          "removed": false
        },
        {
          "address": "0x30641013934ec7625c9e73a4d63aab4201004259",
          "topics": [
            "0xfc6ecd966b430510beae9124efe7dd517ed5286d7ed0ae258f8556c7a9765a44",
            "0x0000000000000000000000000000000000000000000000000000000000000004",
            "0x0000000000000000000000001932e815254c53b3ecd81cecf252a5ac7f0e8bea"
          ],
          "data": "0x00000000000000000000000000000000000000000000000027c05be11512c4e40000000000000000000000000000000000000000000000303f3b2c93f1a80000",
          "blockHash": "0x8231a46d36de93e03d7117c38078d845ac62aa52c361c6110bc82d33851cb8c3",
          "blockNumber": "0x1566d3d",
          "blockTimestamp": "0x681d18bb",
          "transactionHash": "0x50d15c313d85f6fbc36fe2bcb6cb650096efe12863d64671f2e68ec2a73687e5",
          "transactionIndex": "0x11b",
          "logIndex": "0x19c",
          "removed": false
        },
        {
          "address": "0x0b010000b7624eb9b3dfbc279673c76e9d29d5f7",
          "topics": [
            "0xddf252ad1be2c89b69c2b068fc378daa952ba7f163c4a11628f55a4df523b3ef",
            "0x00000000000000000000000030641013934ec7625c9e73a4d63aab4201004259",
            "0x0000000000000000000000001932e815254c53b3ecd81cecf252a5ac7f0e8bea"
          ],
          "data": "0x00000000000000000000000000000000000000000000000027c05be11512c4e4",
          "blockHash": "0x8231a46d36de93e03d7117c38078d845ac62aa52c361c6110bc82d33851cb8c3",
          "blockNumber": "0x1566d3d",
          "blockTimestamp": "0x681d18bb",
          "transactionHash": "0x50d15c313d85f6fbc36fe2bcb6cb650096efe12863d64671f2e68ec2a73687e5",
          "transactionIndex": "0x11b",
          "logIndex": "0x19d",
          "removed": false
        },
        {
          "address": "0x30641013934ec7625c9e73a4d63aab4201004259",
          "topics": [
            "0xfc6ecd966b430510beae9124efe7dd517ed5286d7ed0ae258f8556c7a9765a44",
            "0x0000000000000000000000000000000000000000000000000000000000000005",
            "0x0000000000000000000000001932e815254c53b3ecd81cecf252a5ac7f0e8bea"
          ],
          "data": "0x000000000000000000000000000000000000000000000000a91156165938926d0000000000000000000000000000000000000000000000cd3357868e7de2c164",
          "blockHash": "0x8231a46d36de93e03d7117c38078d845ac62aa52c361c6110bc82d33851cb8c3",
          "blockNumber": "0x1566d3d",
          "blockTimestamp": "0x681d18bb",
          "transactionHash": "0x50d15c313d85f6fbc36fe2bcb6cb650096efe12863d64671f2e68ec2a73687e5",
          "transactionIndex": "0x11b",
          "logIndex": "0x19e",
          "removed": false
        },
        {
          "address": "0x0b010000b7624eb9b3dfbc279673c76e9d29d5f7",
          "topics": [
            "0xddf252ad1be2c89b69c2b068fc378daa952ba7f163c4a11628f55a4df523b3ef",
            "0x00000000000000000000000030641013934ec7625c9e73a4d63aab4201004259",
            "0x0000000000000000000000001932e815254c53b3ecd81cecf252a5ac7f0e8bea"
          ],
          "data": "0x000000000000000000000000000000000000000000000000a91156165938926d",
          "blockHash": "0x8231a46d36de93e03d7117c38078d845ac62aa52c361c6110bc82d33851cb8c3",
          "blockNumber": "0x1566d3d",
          "blockTimestamp": "0x681d18bb",
          "transactionHash": "0x50d15c313d85f6fbc36fe2bcb6cb650096efe12863d64671f2e68ec2a73687e5",
          "transactionIndex": "0x11b",
          "logIndex": "0x19f",
          "removed": false
        },
        {
          "address": "0x30641013934ec7625c9e73a4d63aab4201004259",
          "topics": [
            "0xfc6ecd966b430510beae9124efe7dd517ed5286d7ed0ae258f8556c7a9765a44",
            "0x0000000000000000000000000000000000000000000000000000000000000006",
            "0x0000000000000000000000001932e815254c53b3ecd81cecf252a5ac7f0e8bea"
          ],
          "data": "0x0000000000000000000000000000000000000000000000000c0f35c2d85edccf00000000000000000000000000000000000000000000000ea300b17a8b780000",
          "blockHash": "0x8231a46d36de93e03d7117c38078d845ac62aa52c361c6110bc82d33851cb8c3",
          "blockNumber": "0x1566d3d",
          "blockTimestamp": "0x681d18bb",
          "transactionHash": "0x50d15c313d85f6fbc36fe2bcb6cb650096efe12863d64671f2e68ec2a73687e5",
          "transactionIndex": "0x11b",
          "logIndex": "0x1a0",
          "removed": false
        },
        {
          "address": "0x0b010000b7624eb9b3dfbc279673c76e9d29d5f7",
          "topics": [
            "0xddf252ad1be2c89b69c2b068fc378daa952ba7f163c4a11628f55a4df523b3ef",
            "0x00000000000000000000000030641013934ec7625c9e73a4d63aab4201004259",
            "0x0000000000000000000000001932e815254c53b3ecd81cecf252a5ac7f0e8bea"
          ],
          "data": "0x0000000000000000000000000000000000000000000000000c0f35c2d85edccf",
          "blockHash": "0x8231a46d36de93e03d7117c38078d845ac62aa52c361c6110bc82d33851cb8c3",
          "blockNumber": "0x1566d3d",
          "blockTimestamp": "0x681d18bb",
          "transactionHash": "0x50d15c313d85f6fbc36fe2bcb6cb650096efe12863d64671f2e68ec2a73687e5",
          "transactionIndex": "0x11b",
          "logIndex": "0x1a1",
          "removed": false
        },
        {
          "address": "0x30641013934ec7625c9e73a4d63aab4201004259",
          "topics": [
            "0xfc6ecd966b430510beae9124efe7dd517ed5286d7ed0ae258f8556c7a9765a44",
            "0x0000000000000000000000000000000000000000000000000000000000000008",
            "0x0000000000000000000000001932e815254c53b3ecd81cecf252a5ac7f0e8bea"
          ],
          "data": "0x000000000000000000000000000000000000000000000006041f051773c4c73300000000000000000000000000000000000000000000074d45e11288bb880000",
          "blockHash": "0x8231a46d36de93e03d7117c38078d845ac62aa52c361c6110bc82d33851cb8c3",
          "blockNumber": "0x1566d3d",
          "blockTimestamp": "0x681d18bb",
          "transactionHash": "0x50d15c313d85f6fbc36fe2bcb6cb650096efe12863d64671f2e68ec2a73687e5",
          "transactionIndex": "0x11b",
          "logIndex": "0x1a2",
          "removed": false
        },
        {
          "address": "0x0b010000b7624eb9b3dfbc279673c76e9d29d5f7",
          "topics": [
            "0xddf252ad1be2c89b69c2b068fc378daa952ba7f163c4a11628f55a4df523b3ef",
            "0x00000000000000000000000030641013934ec7625c9e73a4d63aab4201004259",
            "0x0000000000000000000000001932e815254c53b3ecd81cecf252a5ac7f0e8bea"
          ],
          "data": "0x000000000000000000000000000000000000000000000006041f051773c4c733",
          "blockHash": "0x8231a46d36de93e03d7117c38078d845ac62aa52c361c6110bc82d33851cb8c3",
          "blockNumber": "0x1566d3d",
          "blockTimestamp": "0x681d18bb",
          "transactionHash": "0x50d15c313d85f6fbc36fe2bcb6cb650096efe12863d64671f2e68ec2a73687e5",
          "transactionIndex": "0x11b",
          "logIndex": "0x1a3",
          "removed": false
        },
        {
          "address": "0x30641013934ec7625c9e73a4d63aab4201004259",
          "topics": [
            "0xfc6ecd966b430510beae9124efe7dd517ed5286d7ed0ae258f8556c7a9765a44",
            "0x0000000000000000000000000000000000000000000000000000000000000009",
            "0x0000000000000000000000001932e815254c53b3ecd81cecf252a5ac7f0e8bea"
          ],
          "data": "0x00000000000000000000000000000000000000000000000073e784b43c01831e00000000000000000000000000000000000000000000008cacdbff19caac0000",
          "blockHash": "0x8231a46d36de93e03d7117c38078d845ac62aa52c361c6110bc82d33851cb8c3",
          "blockNumber": "0x1566d3d",
          "blockTimestamp": "0x681d18bb",
          "transactionHash": "0x50d15c313d85f6fbc36fe2bcb6cb650096efe12863d64671f2e68ec2a73687e5",
          "transactionIndex": "0x11b",
          "logIndex": "0x1a4",
          "removed": false
        },
        {
          "address": "0x0b010000b7624eb9b3dfbc279673c76e9d29d5f7",
          "topics": [
            "0xddf252ad1be2c89b69c2b068fc378daa952ba7f163c4a11628f55a4df523b3ef",
            "0x00000000000000000000000030641013934ec7625c9e73a4d63aab4201004259",
            "0x0000000000000000000000001932e815254c53b3ecd81cecf252a5ac7f0e8bea"
          ],
          "data": "0x00000000000000000000000000000000000000000000000073e784b43c01831e",
          "blockHash": "0x8231a46d36de93e03d7117c38078d845ac62aa52c361c6110bc82d33851cb8c3",
          "blockNumber": "0x1566d3d",
          "blockTimestamp": "0x681d18bb",
          "transactionHash": "0x50d15c313d85f6fbc36fe2bcb6cb650096efe12863d64671f2e68ec2a73687e5",
          "transactionIndex": "0x11b",
          "logIndex": "0x1a5",
          "removed": false
        },
        {
          "address": "0x30641013934ec7625c9e73a4d63aab4201004259",
          "topics": [
            "0xfc6ecd966b430510beae9124efe7dd517ed5286d7ed0ae258f8556c7a9765a44",
            "0x000000000000000000000000000000000000000000000000000000000000000a",
            "0x0000000000000000000000001932e815254c53b3ecd81cecf252a5ac7f0e8bea"
          ],
          "data": "0x000000000000000000000000000000000000000000000000de6ddf98089ccc4600000000000000000000000000000000000000000000010df7621ed445500000",
          "blockHash": "0x8231a46d36de93e03d7117c38078d845ac62aa52c361c6110bc82d33851cb8c3",
          "blockNumber": "0x1566d3d",
          "blockTimestamp": "0x681d18bb",
          "transactionHash": "0x50d15c313d85f6fbc36fe2bcb6cb650096efe12863d64671f2e68ec2a73687e5",
          "transactionIndex": "0x11b",
          "logIndex": "0x1a6",
          "removed": false
        },
        {
          "address": "0x0b010000b7624eb9b3dfbc279673c76e9d29d5f7",
          "topics": [
            "0xddf252ad1be2c89b69c2b068fc378daa952ba7f163c4a11628f55a4df523b3ef",
            "0x00000000000000000000000030641013934ec7625c9e73a4d63aab4201004259",
            "0x0000000000000000000000001932e815254c53b3ecd81cecf252a5ac7f0e8bea"
          ],
          "data": "0x000000000000000000000000000000000000000000000000de6ddf98089ccc46",
          "blockHash": "0x8231a46d36de93e03d7117c38078d845ac62aa52c361c6110bc82d33851cb8c3",
          "blockNumber": "0x1566d3d",
          "blockTimestamp": "0x681d18bb",
          "transactionHash": "0x50d15c313d85f6fbc36fe2bcb6cb650096efe12863d64671f2e68ec2a73687e5",
          "transactionIndex": "0x11b",
          "logIndex": "0x1a7",
          "removed": false
        },
        {
          "address": "0x30641013934ec7625c9e73a4d63aab4201004259",
          "topics": [
            "0xfc6ecd966b430510beae9124efe7dd517ed5286d7ed0ae258f8556c7a9765a44",
            "0x000000000000000000000000000000000000000000000000000000000000000b",
            "0x0000000000000000000000001932e815254c53b3ecd81cecf252a5ac7f0e8bea"
          ],
          "data": "0x00000000000000000000000000000000000000000000000022f8e8b50d1319f300000000000000000000000000000000000000000000002a724ecf7cfadc0000",
          "blockHash": "0x8231a46d36de93e03d7117c38078d845ac62aa52c361c6110bc82d33851cb8c3",
          "blockNumber": "0x1566d3d",
          "blockTimestamp": "0x681d18bb",
          "transactionHash": "0x50d15c313d85f6fbc36fe2bcb6cb650096efe12863d64671f2e68ec2a73687e5",
          "transactionIndex": "0x11b",
          "logIndex": "0x1a8",
          "removed": false
        },
        {
          "address": "0x0b010000b7624eb9b3dfbc279673c76e9d29d5f7",
          "topics": [
            "0xddf252ad1be2c89b69c2b068fc378daa952ba7f163c4a11628f55a4df523b3ef",
            "0x00000000000000000000000030641013934ec7625c9e73a4d63aab4201004259",
            "0x0000000000000000000000001932e815254c53b3ecd81cecf252a5ac7f0e8bea"
          ],
          "data": "0x00000000000000000000000000000000000000000000000022f8e8b50d1319f3",
          "blockHash": "0x8231a46d36de93e03d7117c38078d845ac62aa52c361c6110bc82d33851cb8c3",
          "blockNumber": "0x1566d3d",
          "blockTimestamp": "0x681d18bb",
          "transactionHash": "0x50d15c313d85f6fbc36fe2bcb6cb650096efe12863d64671f2e68ec2a73687e5",
          "transactionIndex": "0x11b",
          "logIndex": "0x1a9",
          "removed": false
        },
        {
          "address": "0x30641013934ec7625c9e73a4d63aab4201004259",
          "topics": [
            "0xfc6ecd966b430510beae9124efe7dd517ed5286d7ed0ae258f8556c7a9765a44",
            "0x000000000000000000000000000000000000000000000000000000000000000c",
            "0x0000000000000000000000001932e815254c53b3ecd81cecf252a5ac7f0e8bea"
          ],
          "data": "0x00000000000000000000000000000000000000000000000c2dfbdd1a2de1d928000000000000000000000000000000000000000000000ec85a7d3410fc240000",
          "blockHash": "0x8231a46d36de93e03d7117c38078d845ac62aa52c361c6110bc82d33851cb8c3",
          "blockNumber": "0x1566d3d",
          "blockTimestamp": "0x681d18bb",
          "transactionHash": "0x50d15c313d85f6fbc36fe2bcb6cb650096efe12863d64671f2e68ec2a73687e5",
          "transactionIndex": "0x11b",
          "logIndex": "0x1aa",
          "removed": false
        },
        {
          "address": "0x0b010000b7624eb9b3dfbc279673c76e9d29d5f7",
          "topics": [
            "0xddf252ad1be2c89b69c2b068fc378daa952ba7f163c4a11628f55a4df523b3ef",
            "0x00000000000000000000000030641013934ec7625c9e73a4d63aab4201004259",
            "0x0000000000000000000000001932e815254c53b3ecd81cecf252a5ac7f0e8bea"
          ],
          "data": "0x00000000000000000000000000000000000000000000000c2dfbdd1a2de1d928",
          "blockHash": "0x8231a46d36de93e03d7117c38078d845ac62aa52c361c6110bc82d33851cb8c3",
          "blockNumber": "0x1566d3d",
          "blockTimestamp": "0x681d18bb",
          "transactionHash": "0x50d15c313d85f6fbc36fe2bcb6cb650096efe12863d64671f2e68ec2a73687e5",
          "transactionIndex": "0x11b",
          "logIndex": "0x1ab",
          "removed": false
        },
        {
          "address": "0x30641013934ec7625c9e73a4d63aab4201004259",
          "topics": [
            "0xfc6ecd966b430510beae9124efe7dd517ed5286d7ed0ae258f8556c7a9765a44",
            "0x000000000000000000000000000000000000000000000000000000000000000d",
            "0x0000000000000000000000001932e815254c53b3ecd81cecf252a5ac7f0e8bea"
          ],
          "data": "0x000000000000000000000000000000000000000000000000c3763e8f8a11150b0000000000000000000000000000000000000000000000ed3c52db6b4d599789",
          "blockHash": "0x8231a46d36de93e03d7117c38078d845ac62aa52c361c6110bc82d33851cb8c3",
          "blockNumber": "0x1566d3d",
          "blockTimestamp": "0x681d18bb",
          "transactionHash": "0x50d15c313d85f6fbc36fe2bcb6cb650096efe12863d64671f2e68ec2a73687e5",
          "transactionIndex": "0x11b",
          "logIndex": "0x1ac",
          "removed": false
        },
        {
          "address": "0x0b010000b7624eb9b3dfbc279673c76e9d29d5f7",
          "topics": [
            "0xddf252ad1be2c89b69c2b068fc378daa952ba7f163c4a11628f55a4df523b3ef",
            "0x00000000000000000000000030641013934ec7625c9e73a4d63aab4201004259",
            "0x0000000000000000000000001932e815254c53b3ecd81cecf252a5ac7f0e8bea"
          ],
          "data": "0x000000000000000000000000000000000000000000000000c3763e8f8a11150b",
          "blockHash": "0x8231a46d36de93e03d7117c38078d845ac62aa52c361c6110bc82d33851cb8c3",
          "blockNumber": "0x1566d3d",
          "blockTimestamp": "0x681d18bb",
          "transactionHash": "0x50d15c313d85f6fbc36fe2bcb6cb650096efe12863d64671f2e68ec2a73687e5",
          "transactionIndex": "0x11b",
          "logIndex": "0x1ad",
          "removed": false
        },
        {
          "address": "0x30641013934ec7625c9e73a4d63aab4201004259",
          "topics": [
            "0xfc6ecd966b430510beae9124efe7dd517ed5286d7ed0ae258f8556c7a9765a44",
            "0x000000000000000000000000000000000000000000000000000000000000000e",
            "0x0000000000000000000000001932e815254c53b3ecd81cecf252a5ac7f0e8bea"
          ],
          "data": "0x00000000000000000000000000000000000000000000000022f8e8b50d1319f300000000000000000000000000000000000000000000002a724ecf7cfadc0000",
          "blockHash": "0x8231a46d36de93e03d7117c38078d845ac62aa52c361c6110bc82d33851cb8c3",
          "blockNumber": "0x1566d3d",
          "blockTimestamp": "0x681d18bb",
          "transactionHash": "0x50d15c313d85f6fbc36fe2bcb6cb650096efe12863d64671f2e68ec2a73687e5",
          "transactionIndex": "0x11b",
          "logIndex": "0x1ae",
          "removed": false
        },
        {
          "address": "0x0b010000b7624eb9b3dfbc279673c76e9d29d5f7",
          "topics": [
            "0xddf252ad1be2c89b69c2b068fc378daa952ba7f163c4a11628f55a4df523b3ef",
            "0x00000000000000000000000030641013934ec7625c9e73a4d63aab4201004259",
            "0x0000000000000000000000001932e815254c53b3ecd81cecf252a5ac7f0e8bea"
          ],
          "data": "0x00000000000000000000000000000000000000000000000022f8e8b50d1319f3",
          "blockHash": "0x8231a46d36de93e03d7117c38078d845ac62aa52c361c6110bc82d33851cb8c3",
          "blockNumber": "0x1566d3d",
          "blockTimestamp": "0x681d18bb",
          "transactionHash": "0x50d15c313d85f6fbc36fe2bcb6cb650096efe12863d64671f2e68ec2a73687e5",
          "transactionIndex": "0x11b",
          "logIndex": "0x1af",
          "removed": false
        },
        {
          "address": "0x30641013934ec7625c9e73a4d63aab4201004259",
          "topics": [
            "0xfc6ecd966b430510beae9124efe7dd517ed5286d7ed0ae258f8556c7a9765a44",
            "0x000000000000000000000000000000000000000000000000000000000000000f",
            "0x0000000000000000000000001932e815254c53b3ecd81cecf252a5ac7f0e8bea"
          ],
          "data": "0x0000000000000000000000000000000000000000000000006fa9471f15cd2bf20000000000000000000000000000000000000000000000878678326eac900000",
          "blockHash": "0x8231a46d36de93e03d7117c38078d845ac62aa52c361c6110bc82d33851cb8c3",
          "blockNumber": "0x1566d3d",
          "blockTimestamp": "0x681d18bb",
          "transactionHash": "0x50d15c313d85f6fbc36fe2bcb6cb650096efe12863d64671f2e68ec2a73687e5",
          "transactionIndex": "0x11b",
          "logIndex": "0x1b0",
          "removed": false
        },
        {
          "address": "0x0b010000b7624eb9b3dfbc279673c76e9d29d5f7",
          "topics": [
            "0xddf252ad1be2c89b69c2b068fc378daa952ba7f163c4a11628f55a4df523b3ef",
            "0x00000000000000000000000030641013934ec7625c9e73a4d63aab4201004259",
            "0x0000000000000000000000001932e815254c53b3ecd81cecf252a5ac7f0e8bea"
          ],
          "data": "0x0000000000000000000000000000000000000000000000006fa9471f15cd2bf2",
          "blockHash": "0x8231a46d36de93e03d7117c38078d845ac62aa52c361c6110bc82d33851cb8c3",
          "blockNumber": "0x1566d3d",
          "blockTimestamp": "0x681d18bb",
          "transactionHash": "0x50d15c313d85f6fbc36fe2bcb6cb650096efe12863d64671f2e68ec2a73687e5",
          "transactionIndex": "0x11b",
          "logIndex": "0x1b1",
          "removed": false
        },
        {
          "address": "0x30641013934ec7625c9e73a4d63aab4201004259",
          "topics": [
            "0xfc6ecd966b430510beae9124efe7dd517ed5286d7ed0ae258f8556c7a9765a44",
            "0x0000000000000000000000000000000000000000000000000000000000000010",
            "0x0000000000000000000000001932e815254c53b3ecd81cecf252a5ac7f0e8bea"
          ],
          "data": "0x0000000000000000000000000000000000000000000000007831316b4a5c2146000000000000000000000000000000000000000000000091e1208278902c0000",
          "blockHash": "0x8231a46d36de93e03d7117c38078d845ac62aa52c361c6110bc82d33851cb8c3",
          "blockNumber": "0x1566d3d",
          "blockTimestamp": "0x681d18bb",
          "transactionHash": "0x50d15c313d85f6fbc36fe2bcb6cb650096efe12863d64671f2e68ec2a73687e5",
          "transactionIndex": "0x11b",
          "logIndex": "0x1b2",
          "removed": false
        },
        {
          "address": "0x0b010000b7624eb9b3dfbc279673c76e9d29d5f7",
          "topics": [
            "0xddf252ad1be2c89b69c2b068fc378daa952ba7f163c4a11628f55a4df523b3ef",
            "0x00000000000000000000000030641013934ec7625c9e73a4d63aab4201004259",
            "0x0000000000000000000000001932e815254c53b3ecd81cecf252a5ac7f0e8bea"
          ],
          "data": "0x0000000000000000000000000000000000000000000000007831316b4a5c2146",
          "blockHash": "0x8231a46d36de93e03d7117c38078d845ac62aa52c361c6110bc82d33851cb8c3",
          "blockNumber": "0x1566d3d",
          "blockTimestamp": "0x681d18bb",
          "transactionHash": "0x50d15c313d85f6fbc36fe2bcb6cb650096efe12863d64671f2e68ec2a73687e5",
          "transactionIndex": "0x11b",
          "logIndex": "0x1b3",
          "removed": false
        },
        {
          "address": "0x30641013934ec7625c9e73a4d63aab4201004259",
          "topics": [
            "0xfc6ecd966b430510beae9124efe7dd517ed5286d7ed0ae258f8556c7a9765a44",
            "0x0000000000000000000000000000000000000000000000000000000000000012",
            "0x0000000000000000000000001932e815254c53b3ecd81cecf252a5ac7f0e8bea"
          ],
          "data": "0x00000000000000000000000000000000000000000000000022f8e8b50d1319f300000000000000000000000000000000000000000000002a724ecf7cfadc0000",
          "blockHash": "0x8231a46d36de93e03d7117c38078d845ac62aa52c361c6110bc82d33851cb8c3",
          "blockNumber": "0x1566d3d",
          "blockTimestamp": "0x681d18bb",
          "transactionHash": "0x50d15c313d85f6fbc36fe2bcb6cb650096efe12863d64671f2e68ec2a73687e5",
          "transactionIndex": "0x11b",
          "logIndex": "0x1b4",
          "removed": false
        },
        {
          "address": "0x0b010000b7624eb9b3dfbc279673c76e9d29d5f7",
          "topics": [
            "0xddf252ad1be2c89b69c2b068fc378daa952ba7f163c4a11628f55a4df523b3ef",
            "0x00000000000000000000000030641013934ec7625c9e73a4d63aab4201004259",
            "0x0000000000000000000000001932e815254c53b3ecd81cecf252a5ac7f0e8bea"
          ],
          "data": "0x00000000000000000000000000000000000000000000000022f8e8b50d1319f3",
          "blockHash": "0x8231a46d36de93e03d7117c38078d845ac62aa52c361c6110bc82d33851cb8c3",
          "blockNumber": "0x1566d3d",
          "blockTimestamp": "0x681d18bb",
          "transactionHash": "0x50d15c313d85f6fbc36fe2bcb6cb650096efe12863d64671f2e68ec2a73687e5",
          "transactionIndex": "0x11b",
          "logIndex": "0x1b5",
          "removed": false
        },
        {
          "address": "0x30641013934ec7625c9e73a4d63aab4201004259",
          "topics": [
            "0xfc6ecd966b430510beae9124efe7dd517ed5286d7ed0ae258f8556c7a9765a44",
            "0x0000000000000000000000000000000000000000000000000000000000000014",
            "0x0000000000000000000000001932e815254c53b3ecd81cecf252a5ac7f0e8bea"
          ],
          "data": "0x00000000000000000000000000000000000000000000001a8a26f501deeea63f0000000000000000000000000000000000000000000024e36fcba358e6a20000",
          "blockHash": "0x8231a46d36de93e03d7117c38078d845ac62aa52c361c6110bc82d33851cb8c3",
          "blockNumber": "0x1566d3d",
          "blockTimestamp": "0x681d18bb",
          "transactionHash": "0x50d15c313d85f6fbc36fe2bcb6cb650096efe12863d64671f2e68ec2a73687e5",
          "transactionIndex": "0x11b",
          "logIndex": "0x1b6",
          "removed": false
        },
        {
          "address": "0x0b010000b7624eb9b3dfbc279673c76e9d29d5f7",
          "topics": [
            "0xddf252ad1be2c89b69c2b068fc378daa952ba7f163c4a11628f55a4df523b3ef",
            "0x00000000000000000000000030641013934ec7625c9e73a4d63aab4201004259",
            "0x0000000000000000000000001932e815254c53b3ecd81cecf252a5ac7f0e8bea"
          ],
          "data": "0x00000000000000000000000000000000000000000000001a8a26f501deeea63f",
          "blockHash": "0x8231a46d36de93e03d7117c38078d845ac62aa52c361c6110bc82d33851cb8c3",
          "blockNumber": "0x1566d3d",
          "blockTimestamp": "0x681d18bb",
          "transactionHash": "0x50d15c313d85f6fbc36fe2bcb6cb650096efe12863d64671f2e68ec2a73687e5",
          "transactionIndex": "0x11b",
          "logIndex": "0x1b7",
          "removed": false
        },
        {
          "address": "0x30641013934ec7625c9e73a4d63aab4201004259",
          "topics": [
            "0xfc6ecd966b430510beae9124efe7dd517ed5286d7ed0ae258f8556c7a9765a44",
            "0x0000000000000000000000000000000000000000000000000000000000000016",
            "0x0000000000000000000000001932e815254c53b3ecd81cecf252a5ac7f0e8bea"
          ],
          "data": "0x00000000000000000000000000000000000000000000000412b153030a8ed6450000000000000000000000000000000000000000000004f188f4d4e396240000",
          "blockHash": "0x8231a46d36de93e03d7117c38078d845ac62aa52c361c6110bc82d33851cb8c3",
          "blockNumber": "0x1566d3d",
          "blockTimestamp": "0x681d18bb",
          "transactionHash": "0x50d15c313d85f6fbc36fe2bcb6cb650096efe12863d64671f2e68ec2a73687e5",
          "transactionIndex": "0x11b",
          "logIndex": "0x1b8",
          "removed": false
        },
        {
          "address": "0x0b010000b7624eb9b3dfbc279673c76e9d29d5f7",
          "topics": [
            "0xddf252ad1be2c89b69c2b068fc378daa952ba7f163c4a11628f55a4df523b3ef",
            "0x00000000000000000000000030641013934ec7625c9e73a4d63aab4201004259",
            "0x0000000000000000000000001932e815254c53b3ecd81cecf252a5ac7f0e8bea"
          ],
          "data": "0x00000000000000000000000000000000000000000000000412b153030a8ed645",
          "blockHash": "0x8231a46d36de93e03d7117c38078d845ac62aa52c361c6110bc82d33851cb8c3",
          "blockNumber": "0x1566d3d",
          "blockTimestamp": "0x681d18bb",
          "transactionHash": "0x50d15c313d85f6fbc36fe2bcb6cb650096efe12863d64671f2e68ec2a73687e5",
          "transactionIndex": "0x11b",
          "logIndex": "0x1b9",
          "removed": false
        },
        {
          "address": "0x30641013934ec7625c9e73a4d63aab4201004259",
          "topics": [
            "0xfc6ecd966b430510beae9124efe7dd517ed5286d7ed0ae258f8556c7a9765a44",
            "0x0000000000000000000000000000000000000000000000000000000000000019",
            "0x0000000000000000000000001932e815254c53b3ecd81cecf252a5ac7f0e8bea"
          ],
          "data": "0x000000000000000000000000000000000000000000000000bb74f6e2fb89b2530000000000000000000000000000000000000000000000e385134f574a740000",
          "blockHash": "0x8231a46d36de93e03d7117c38078d845ac62aa52c361c6110bc82d33851cb8c3",
          "blockNumber": "0x1566d3d",
          "blockTimestamp": "0x681d18bb",
          "transactionHash": "0x50d15c313d85f6fbc36fe2bcb6cb650096efe12863d64671f2e68ec2a73687e5",
          "transactionIndex": "0x11b",
          "logIndex": "0x1ba",
          "removed": false
        },
        {
          "address": "0x0b010000b7624eb9b3dfbc279673c76e9d29d5f7",
          "topics": [
            "0xddf252ad1be2c89b69c2b068fc378daa952ba7f163c4a11628f55a4df523b3ef",
            "0x00000000000000000000000030641013934ec7625c9e73a4d63aab4201004259",
            "0x0000000000000000000000001932e815254c53b3ecd81cecf252a5ac7f0e8bea"
          ],
          "data": "0x000000000000000000000000000000000000000000000000bb74f6e2fb89b253",
          "blockHash": "0x8231a46d36de93e03d7117c38078d845ac62aa52c361c6110bc82d33851cb8c3",
          "blockNumber": "0x1566d3d",
          "blockTimestamp": "0x681d18bb",
          "transactionHash": "0x50d15c313d85f6fbc36fe2bcb6cb650096efe12863d64671f2e68ec2a73687e5",
          "transactionIndex": "0x11b",
          "logIndex": "0x1bb",
          "removed": false
        },
        {
          "address": "0x30641013934ec7625c9e73a4d63aab4201004259",
          "topics": [
            "0xfc6ecd966b430510beae9124efe7dd517ed5286d7ed0ae258f8556c7a9765a44",
            "0x000000000000000000000000000000000000000000000000000000000000001a",
            "0x0000000000000000000000001932e815254c53b3ecd81cecf252a5ac7f0e8bea"
          ],
          "data": "0x0000000000000000000000000000000000000000000000003c12e124b11aed25000000000000000000000000000000000000000000000048e99fe5e274640000",
          "blockHash": "0x8231a46d36de93e03d7117c38078d845ac62aa52c361c6110bc82d33851cb8c3",
          "blockNumber": "0x1566d3d",
          "blockTimestamp": "0x681d18bb",
          "transactionHash": "0x50d15c313d85f6fbc36fe2bcb6cb650096efe12863d64671f2e68ec2a73687e5",
          "transactionIndex": "0x11b",
          "logIndex": "0x1bc",
          "removed": false
        },
        {
          "address": "0x0b010000b7624eb9b3dfbc279673c76e9d29d5f7",
          "topics": [
            "0xddf252ad1be2c89b69c2b068fc378daa952ba7f163c4a11628f55a4df523b3ef",
            "0x00000000000000000000000030641013934ec7625c9e73a4d63aab4201004259",
            "0x0000000000000000000000001932e815254c53b3ecd81cecf252a5ac7f0e8bea"
          ],
          "data": "0x0000000000000000000000000000000000000000000000003c12e124b11aed25",
          "blockHash": "0x8231a46d36de93e03d7117c38078d845ac62aa52c361c6110bc82d33851cb8c3",
          "blockNumber": "0x1566d3d",
          "blockTimestamp": "0x681d18bb",
          "transactionHash": "0x50d15c313d85f6fbc36fe2bcb6cb650096efe12863d64671f2e68ec2a73687e5",
          "transactionIndex": "0x11b",
          "logIndex": "0x1bd",
          "removed": false
        },
        {
          "address": "0x30641013934ec7625c9e73a4d63aab4201004259",
          "topics": [
            "0xfc6ecd966b430510beae9124efe7dd517ed5286d7ed0ae258f8556c7a9765a44",
            "0x000000000000000000000000000000000000000000000000000000000000001b",
            "0x0000000000000000000000001932e815254c53b3ecd81cecf252a5ac7f0e8bea"
          ],
          "data": "0x00000000000000000000000000000000000000000000000022f8e8b50d1319f300000000000000000000000000000000000000000000002a724ecf7cfadc0000",
          "blockHash": "0x8231a46d36de93e03d7117c38078d845ac62aa52c361c6110bc82d33851cb8c3",
          "blockNumber": "0x1566d3d",
          "blockTimestamp": "0x681d18bb",
          "transactionHash": "0x50d15c313d85f6fbc36fe2bcb6cb650096efe12863d64671f2e68ec2a73687e5",
          "transactionIndex": "0x11b",
          "logIndex": "0x1be",
          "removed": false
        },
        {
          "address": "0x0b010000b7624eb9b3dfbc279673c76e9d29d5f7",
          "topics": [
            "0xddf252ad1be2c89b69c2b068fc378daa952ba7f163c4a11628f55a4df523b3ef",
            "0x00000000000000000000000030641013934ec7625c9e73a4d63aab4201004259",
            "0x0000000000000000000000001932e815254c53b3ecd81cecf252a5ac7f0e8bea"
          ],
          "data": "0x00000000000000000000000000000000000000000000000022f8e8b50d1319f3",
          "blockHash": "0x8231a46d36de93e03d7117c38078d845ac62aa52c361c6110bc82d33851cb8c3",
          "blockNumber": "0x1566d3d",
          "blockTimestamp": "0x681d18bb",
          "transactionHash": "0x50d15c313d85f6fbc36fe2bcb6cb650096efe12863d64671f2e68ec2a73687e5",
          "transactionIndex": "0x11b",
          "logIndex": "0x1bf",
          "removed": false
        },
        {
          "address": "0x30641013934ec7625c9e73a4d63aab4201004259",
          "topics": [
            "0xfc6ecd966b430510beae9124efe7dd517ed5286d7ed0ae258f8556c7a9765a44",
            "0x000000000000000000000000000000000000000000000000000000000000001d",
            "0x0000000000000000000000001932e815254c53b3ecd81cecf252a5ac7f0e8bea"
          ],
          "data": "0x0000000000000000000000000000000000000000000000000905b0c12e34021e00000000000000000000000000000000000000000000000af35029c214e80000",
          "blockHash": "0x8231a46d36de93e03d7117c38078d845ac62aa52c361c6110bc82d33851cb8c3",
          "blockNumber": "0x1566d3d",
          "blockTimestamp": "0x681d18bb",
          "transactionHash": "0x50d15c313d85f6fbc36fe2bcb6cb650096efe12863d64671f2e68ec2a73687e5",
          "transactionIndex": "0x11b",
          "logIndex": "0x1c0",
          "removed": false
        },
        {
          "address": "0x0b010000b7624eb9b3dfbc279673c76e9d29d5f7",
          "topics": [
            "0xddf252ad1be2c89b69c2b068fc378daa952ba7f163c4a11628f55a4df523b3ef",
            "0x00000000000000000000000030641013934ec7625c9e73a4d63aab4201004259",
            "0x0000000000000000000000001932e815254c53b3ecd81cecf252a5ac7f0e8bea"
          ],
          "data": "0x0000000000000000000000000000000000000000000000000905b0c12e34021e",
          "blockHash": "0x8231a46d36de93e03d7117c38078d845ac62aa52c361c6110bc82d33851cb8c3",
          "blockNumber": "0x1566d3d",
          "blockTimestamp": "0x681d18bb",
          "transactionHash": "0x50d15c313d85f6fbc36fe2bcb6cb650096efe12863d64671f2e68ec2a73687e5",
          "transactionIndex": "0x11b",
          "logIndex": "0x1c1",
          "removed": false
        },
        {
          "address": "0x30641013934ec7625c9e73a4d63aab4201004259",
          "topics": [
            "0xfc6ecd966b430510beae9124efe7dd517ed5286d7ed0ae258f8556c7a9765a44",
            "0x0000000000000000000000000000000000000000000000000000000000000020",
            "0x0000000000000000000000001932e815254c53b3ecd81cecf252a5ac7f0e8bea"
          ],
          "data": "0x000000000000000000000000000000000000000000000018df75c02213f3f9b9000000000000000000000000000000000000000000001e304d2f7a26f6480000",
          "blockHash": "0x8231a46d36de93e03d7117c38078d845ac62aa52c361c6110bc82d33851cb8c3",
          "blockNumber": "0x1566d3d",
          "blockTimestamp": "0x681d18bb",
          "transactionHash": "0x50d15c313d85f6fbc36fe2bcb6cb650096efe12863d64671f2e68ec2a73687e5",
          "transactionIndex": "0x11b",
          "logIndex": "0x1c2",
          "removed": false
        },
        {
          "address": "0x0b010000b7624eb9b3dfbc279673c76e9d29d5f7",
          "topics": [
            "0xddf252ad1be2c89b69c2b068fc378daa952ba7f163c4a11628f55a4df523b3ef",
            "0x00000000000000000000000030641013934ec7625c9e73a4d63aab4201004259",
            "0x0000000000000000000000001932e815254c53b3ecd81cecf252a5ac7f0e8bea"
          ],
          "data": "0x000000000000000000000000000000000000000000000018df75c02213f3f9b9",
          "blockHash": "0x8231a46d36de93e03d7117c38078d845ac62aa52c361c6110bc82d33851cb8c3",
          "blockNumber": "0x1566d3d",
          "blockTimestamp": "0x681d18bb",
          "transactionHash": "0x50d15c313d85f6fbc36fe2bcb6cb650096efe12863d64671f2e68ec2a73687e5",
          "transactionIndex": "0x11b",
          "logIndex": "0x1c3",
          "removed": false
        },
        {
          "address": "0x30641013934ec7625c9e73a4d63aab4201004259",
          "topics": [
            "0xfc6ecd966b430510beae9124efe7dd517ed5286d7ed0ae258f8556c7a9765a44",
            "0x0000000000000000000000000000000000000000000000000000000000000021",
            "0x0000000000000000000000001932e815254c53b3ecd81cecf252a5ac7f0e8bea"
          ],
          "data": "0x0000000000000000000000000000000000000000000000005425dd8879b25fc900000000000000000000000000000000000000000000006621c09223e3f00000",
          "blockHash": "0x8231a46d36de93e03d7117c38078d845ac62aa52c361c6110bc82d33851cb8c3",
          "blockNumber": "0x1566d3d",
          "blockTimestamp": "0x681d18bb",
          "transactionHash": "0x50d15c313d85f6fbc36fe2bcb6cb650096efe12863d64671f2e68ec2a73687e5",
          "transactionIndex": "0x11b",
          "logIndex": "0x1c4",
          "removed": false
        },
        {
          "address": "0x0b010000b7624eb9b3dfbc279673c76e9d29d5f7",
          "topics": [
            "0xddf252ad1be2c89b69c2b068fc378daa952ba7f163c4a11628f55a4df523b3ef",
            "0x00000000000000000000000030641013934ec7625c9e73a4d63aab4201004259",
            "0x0000000000000000000000001932e815254c53b3ecd81cecf252a5ac7f0e8bea"
          ],
          "data": "0x0000000000000000000000000000000000000000000000005425dd8879b25fc9",
          "blockHash": "0x8231a46d36de93e03d7117c38078d845ac62aa52c361c6110bc82d33851cb8c3",
          "blockNumber": "0x1566d3d",
          "blockTimestamp": "0x681d18bb",
          "transactionHash": "0x50d15c313d85f6fbc36fe2bcb6cb650096efe12863d64671f2e68ec2a73687e5",
          "transactionIndex": "0x11b",
          "logIndex": "0x1c5",
          "removed": false
        },
        {
          "address": "0x30641013934ec7625c9e73a4d63aab4201004259",
          "topics": [
            "0xfc6ecd966b430510beae9124efe7dd517ed5286d7ed0ae258f8556c7a9765a44",
            "0x0000000000000000000000000000000000000000000000000000000000000022",
            "0x0000000000000000000000001932e815254c53b3ecd81cecf252a5ac7f0e8bea"
          ],
          "data": "0x0000000000000000000000000000000000000000000000058c4a717201d1e4de0000000000000000000000000000000000000000000006bbd5298b25c4060000",
          "blockHash": "0x8231a46d36de93e03d7117c38078d845ac62aa52c361c6110bc82d33851cb8c3",
          "blockNumber": "0x1566d3d",
          "blockTimestamp": "0x681d18bb",
          "transactionHash": "0x50d15c313d85f6fbc36fe2bcb6cb650096efe12863d64671f2e68ec2a73687e5",
          "transactionIndex": "0x11b",
          "logIndex": "0x1c6",
          "removed": false
        },
        {
          "address": "0x0b010000b7624eb9b3dfbc279673c76e9d29d5f7",
          "topics": [
            "0xddf252ad1be2c89b69c2b068fc378daa952ba7f163c4a11628f55a4df523b3ef",
            "0x00000000000000000000000030641013934ec7625c9e73a4d63aab4201004259",
            "0x0000000000000000000000001932e815254c53b3ecd81cecf252a5ac7f0e8bea"
          ],
          "data": "0x0000000000000000000000000000000000000000000000058c4a717201d1e4de",
          "blockHash": "0x8231a46d36de93e03d7117c38078d845ac62aa52c361c6110bc82d33851cb8c3",
          "blockNumber": "0x1566d3d",
          "blockTimestamp": "0x681d18bb",
          "transactionHash": "0x50d15c313d85f6fbc36fe2bcb6cb650096efe12863d64671f2e68ec2a73687e5",
          "transactionIndex": "0x11b",
          "logIndex": "0x1c7",
          "removed": false
        },
        {
          "address": "0x30641013934ec7625c9e73a4d63aab4201004259",
          "topics": [
            "0xfc6ecd966b430510beae9124efe7dd517ed5286d7ed0ae258f8556c7a9765a44",
            "0x0000000000000000000000000000000000000000000000000000000000000023",
            "0x0000000000000000000000001932e815254c53b3ecd81cecf252a5ac7f0e8bea"
          ],
          "data": "0x000000000000000000000000000000000000000000000000000b6f21e82646fa0000000000000000000000000000000000000000000000000de0b6b3a763ff9c",
          "blockHash": "0x8231a46d36de93e03d7117c38078d845ac62aa52c361c6110bc82d33851cb8c3",
          "blockNumber": "0x1566d3d",
          "blockTimestamp": "0x681d18bb",
          "transactionHash": "0x50d15c313d85f6fbc36fe2bcb6cb650096efe12863d64671f2e68ec2a73687e5",
          "transactionIndex": "0x11b",
          "logIndex": "0x1c8",
          "removed": false
        },
        {
          "address": "0x0b010000b7624eb9b3dfbc279673c76e9d29d5f7",
          "topics": [
            "0xddf252ad1be2c89b69c2b068fc378daa952ba7f163c4a11628f55a4df523b3ef",
            "0x00000000000000000000000030641013934ec7625c9e73a4d63aab4201004259",
            "0x0000000000000000000000001932e815254c53b3ecd81cecf252a5ac7f0e8bea"
          ],
          "data": "0x000000000000000000000000000000000000000000000000000b6f21e82646fa",
          "blockHash": "0x8231a46d36de93e03d7117c38078d845ac62aa52c361c6110bc82d33851cb8c3",
          "blockNumber": "0x1566d3d",
          "blockTimestamp": "0x681d18bb",
          "transactionHash": "0x50d15c313d85f6fbc36fe2bcb6cb650096efe12863d64671f2e68ec2a73687e5",
          "transactionIndex": "0x11b",
          "logIndex": "0x1c9",
          "removed": false
        },
        {
          "address": "0x30641013934ec7625c9e73a4d63aab4201004259",
          "topics": [
            "0xfc6ecd966b430510beae9124efe7dd517ed5286d7ed0ae258f8556c7a9765a44",
            "0x0000000000000000000000000000000000000000000000000000000000000024",
            "0x0000000000000000000000001932e815254c53b3ecd81cecf252a5ac7f0e8bea"
          ],
          "data": "0x0000000000000000000000000000000000000000000000000e11beb8a71956f10000000000000000000000000000000000000000000000111380cf0ef80c0000",
          "blockHash": "0x8231a46d36de93e03d7117c38078d845ac62aa52c361c6110bc82d33851cb8c3",
          "blockNumber": "0x1566d3d",
          "blockTimestamp": "0x681d18bb",
          "transactionHash": "0x50d15c313d85f6fbc36fe2bcb6cb650096efe12863d64671f2e68ec2a73687e5",
          "transactionIndex": "0x11b",
          "logIndex": "0x1ca",
          "removed": false
        },
        {
          "address": "0x0b010000b7624eb9b3dfbc279673c76e9d29d5f7",
          "topics": [
            "0xddf252ad1be2c89b69c2b068fc378daa952ba7f163c4a11628f55a4df523b3ef",
            "0x00000000000000000000000030641013934ec7625c9e73a4d63aab4201004259",
            "0x0000000000000000000000001932e815254c53b3ecd81cecf252a5ac7f0e8bea"
          ],
          "data": "0x0000000000000000000000000000000000000000000000000e11beb8a71956f1",
          "blockHash": "0x8231a46d36de93e03d7117c38078d845ac62aa52c361c6110bc82d33851cb8c3",
          "blockNumber": "0x1566d3d",
          "blockTimestamp": "0x681d18bb",
          "transactionHash": "0x50d15c313d85f6fbc36fe2bcb6cb650096efe12863d64671f2e68ec2a73687e5",
          "transactionIndex": "0x11b",
          "logIndex": "0x1cb",
          "removed": false
        },
        {
          "address": "0x30641013934ec7625c9e73a4d63aab4201004259",
          "topics": [
            "0xfc6ecd966b430510beae9124efe7dd517ed5286d7ed0ae258f8556c7a9765a44",
            "0x0000000000000000000000000000000000000000000000000000000000000029",
            "0x0000000000000000000000001932e815254c53b3ecd81cecf252a5ac7f0e8bea"
          ],
          "data": "0x000000000000000000000000000000000000000000000001fef63b362e83f41a00000000000000000000000000000000000000000000026c29e47c4844c00000",
          "blockHash": "0x8231a46d36de93e03d7117c38078d845ac62aa52c361c6110bc82d33851cb8c3",
          "blockNumber": "0x1566d3d",
          "blockTimestamp": "0x681d18bb",
          "transactionHash": "0x50d15c313d85f6fbc36fe2bcb6cb650096efe12863d64671f2e68ec2a73687e5",
          "transactionIndex": "0x11b",
          "logIndex": "0x1cc",
          "removed": false
        },
        {
          "address": "0x0b010000b7624eb9b3dfbc279673c76e9d29d5f7",
          "topics": [
            "0xddf252ad1be2c89b69c2b068fc378daa952ba7f163c4a11628f55a4df523b3ef",
            "0x00000000000000000000000030641013934ec7625c9e73a4d63aab4201004259",
            "0x0000000000000000000000001932e815254c53b3ecd81cecf252a5ac7f0e8bea"
          ],
          "data": "0x000000000000000000000000000000000000000000000001fef63b362e83f41a",
          "blockHash": "0x8231a46d36de93e03d7117c38078d845ac62aa52c361c6110bc82d33851cb8c3",
          "blockNumber": "0x1566d3d",
          "blockTimestamp": "0x681d18bb",
          "transactionHash": "0x50d15c313d85f6fbc36fe2bcb6cb650096efe12863d64671f2e68ec2a73687e5",
          "transactionIndex": "0x11b",
          "logIndex": "0x1cd",
          "removed": false
        },
        {
          "address": "0x30641013934ec7625c9e73a4d63aab4201004259",
          "topics": [
            "0xfc6ecd966b430510beae9124efe7dd517ed5286d7ed0ae258f8556c7a9765a44",
            "0x000000000000000000000000000000000000000000000000000000000000002d",
            "0x0000000000000000000000001932e815254c53b3ecd81cecf252a5ac7f0e8bea"
          ],
          "data": "0x000000000000000000000000000000000000000000000003f2c1ef4fa7a697030000000000000000000000000000000000000000000004cac6568d1f11d80000",
          "blockHash": "0x8231a46d36de93e03d7117c38078d845ac62aa52c361c6110bc82d33851cb8c3",
          "blockNumber": "0x1566d3d",
          "blockTimestamp": "0x681d18bb",
          "transactionHash": "0x50d15c313d85f6fbc36fe2bcb6cb650096efe12863d64671f2e68ec2a73687e5",
          "transactionIndex": "0x11b",
          "logIndex": "0x1ce",
          "removed": false
        },
        {
          "address": "0x0b010000b7624eb9b3dfbc279673c76e9d29d5f7",
          "topics": [
            "0xddf252ad1be2c89b69c2b068fc378daa952ba7f163c4a11628f55a4df523b3ef",
            "0x00000000000000000000000030641013934ec7625c9e73a4d63aab4201004259",
            "0x0000000000000000000000001932e815254c53b3ecd81cecf252a5ac7f0e8bea"
          ],
          "data": "0x000000000000000000000000000000000000000000000003f2c1ef4fa7a69703",
          "blockHash": "0x8231a46d36de93e03d7117c38078d845ac62aa52c361c6110bc82d33851cb8c3",
          "blockNumber": "0x1566d3d",
          "blockTimestamp": "0x681d18bb",
          "transactionHash": "0x50d15c313d85f6fbc36fe2bcb6cb650096efe12863d64671f2e68ec2a73687e5",
          "transactionIndex": "0x11b",
          "logIndex": "0x1cf",
          "removed": false
        },
        {
          "address": "0x30641013934ec7625c9e73a4d63aab4201004259",
          "topics": [
            "0xfc6ecd966b430510beae9124efe7dd517ed5286d7ed0ae258f8556c7a9765a44",
            "0x0000000000000000000000000000000000000000000000000000000000000033",
            "0x0000000000000000000000001932e815254c53b3ecd81cecf252a5ac7f0e8bea"
          ],
          "data": "0x00000000000000000000000000000000000000000000000022f8e8b50d1319f300000000000000000000000000000000000000000000002a724ecf7cfadc0000",
          "blockHash": "0x8231a46d36de93e03d7117c38078d845ac62aa52c361c6110bc82d33851cb8c3",
          "blockNumber": "0x1566d3d",
          "blockTimestamp": "0x681d18bb",
          "transactionHash": "0x50d15c313d85f6fbc36fe2bcb6cb650096efe12863d64671f2e68ec2a73687e5",
          "transactionIndex": "0x11b",
          "logIndex": "0x1d0",
          "removed": false
        },
        {
          "address": "0x0b010000b7624eb9b3dfbc279673c76e9d29d5f7",
          "topics": [
            "0xddf252ad1be2c89b69c2b068fc378daa952ba7f163c4a11628f55a4df523b3ef",
            "0x00000000000000000000000030641013934ec7625c9e73a4d63aab4201004259",
            "0x0000000000000000000000001932e815254c53b3ecd81cecf252a5ac7f0e8bea"
          ],
          "data": "0x00000000000000000000000000000000000000000000000022f8e8b50d1319f3",
          "blockHash": "0x8231a46d36de93e03d7117c38078d845ac62aa52c361c6110bc82d33851cb8c3",
          "blockNumber": "0x1566d3d",
          "blockTimestamp": "0x681d18bb",
          "transactionHash": "0x50d15c313d85f6fbc36fe2bcb6cb650096efe12863d64671f2e68ec2a73687e5",
          "transactionIndex": "0x11b",
          "logIndex": "0x1d1",
          "removed": false
        },
        {
          "address": "0x30641013934ec7625c9e73a4d63aab4201004259",
          "topics": [
            "0xfc6ecd966b430510beae9124efe7dd517ed5286d7ed0ae258f8556c7a9765a44",
            "0x0000000000000000000000000000000000000000000000000000000000000038",
            "0x0000000000000000000000001932e815254c53b3ecd81cecf252a5ac7f0e8bea"
          ],
          "data": "0x00000000000000000000000000000000000000000000000046cb10ee54fd7888000000000000000000000000000000000000000000000055ec4b2e4f62240000",
          "blockHash": "0x8231a46d36de93e03d7117c38078d845ac62aa52c361c6110bc82d33851cb8c3",
          "blockNumber": "0x1566d3d",
          "blockTimestamp": "0x681d18bb",
          "transactionHash": "0x50d15c313d85f6fbc36fe2bcb6cb650096efe12863d64671f2e68ec2a73687e5",
          "transactionIndex": "0x11b",
          "logIndex": "0x1d2",
          "removed": false
        },
        {
          "address": "0x0b010000b7624eb9b3dfbc279673c76e9d29d5f7",
          "topics": [
            "0xddf252ad1be2c89b69c2b068fc378daa952ba7f163c4a11628f55a4df523b3ef",
            "0x00000000000000000000000030641013934ec7625c9e73a4d63aab4201004259",
            "0x0000000000000000000000001932e815254c53b3ecd81cecf252a5ac7f0e8bea"
          ],
          "data": "0x00000000000000000000000000000000000000000000000046cb10ee54fd7888",
          "blockHash": "0x8231a46d36de93e03d7117c38078d845ac62aa52c361c6110bc82d33851cb8c3",
          "blockNumber": "0x1566d3d",
          "blockTimestamp": "0x681d18bb",
          "transactionHash": "0x50d15c313d85f6fbc36fe2bcb6cb650096efe12863d64671f2e68ec2a73687e5",
          "transactionIndex": "0x11b",
          "logIndex": "0x1d3",
          "removed": false
        },
        {
          "address": "0x30641013934ec7625c9e73a4d63aab4201004259",
          "topics": [
            "0xfc6ecd966b430510beae9124efe7dd517ed5286d7ed0ae258f8556c7a9765a44",
            "0x000000000000000000000000000000000000000000000000000000000000003c",
            "0x0000000000000000000000001932e815254c53b3ecd81cecf252a5ac7f0e8bea"
          ],
          "data": "0x0000000000000000000000000000000000000000000000005425dd8879b25fc900000000000000000000000000000000000000000000006621c09223e3f00000",
          "blockHash": "0x8231a46d36de93e03d7117c38078d845ac62aa52c361c6110bc82d33851cb8c3",
          "blockNumber": "0x1566d3d",
          "blockTimestamp": "0x681d18bb",
          "transactionHash": "0x50d15c313d85f6fbc36fe2bcb6cb650096efe12863d64671f2e68ec2a73687e5",
          "transactionIndex": "0x11b",
          "logIndex": "0x1d4",
          "removed": false
        },
        {
          "address": "0x0b010000b7624eb9b3dfbc279673c76e9d29d5f7",
          "topics": [
            "0xddf252ad1be2c89b69c2b068fc378daa952ba7f163c4a11628f55a4df523b3ef",
            "0x00000000000000000000000030641013934ec7625c9e73a4d63aab4201004259",
            "0x0000000000000000000000001932e815254c53b3ecd81cecf252a5ac7f0e8bea"
          ],
          "data": "0x0000000000000000000000000000000000000000000000005425dd8879b25fc9",
          "blockHash": "0x8231a46d36de93e03d7117c38078d845ac62aa52c361c6110bc82d33851cb8c3",
          "blockNumber": "0x1566d3d",
          "blockTimestamp": "0x681d18bb",
          "transactionHash": "0x50d15c313d85f6fbc36fe2bcb6cb650096efe12863d64671f2e68ec2a73687e5",
          "transactionIndex": "0x11b",
          "logIndex": "0x1d5",
          "removed": false
        },
        {
          "address": "0x30641013934ec7625c9e73a4d63aab4201004259",
          "topics": [
            "0xfc6ecd966b430510beae9124efe7dd517ed5286d7ed0ae258f8556c7a9765a44",
            "0x0000000000000000000000000000000000000000000000000000000000000043",
            "0x0000000000000000000000001932e815254c53b3ecd81cecf252a5ac7f0e8bea"
          ],
          "data": "0x0000000000000000000000000000000000000000000000002caa1c72d58544c700000000000000000000000000000000000000000000003635c9adc5dea00000",
          "blockHash": "0x8231a46d36de93e03d7117c38078d845ac62aa52c361c6110bc82d33851cb8c3",
          "blockNumber": "0x1566d3d",
          "blockTimestamp": "0x681d18bb",
          "transactionHash": "0x50d15c313d85f6fbc36fe2bcb6cb650096efe12863d64671f2e68ec2a73687e5",
          "transactionIndex": "0x11b",
          "logIndex": "0x1d6",
          "removed": false
        },
        {
          "address": "0x0b010000b7624eb9b3dfbc279673c76e9d29d5f7",
          "topics": [
            "0xddf252ad1be2c89b69c2b068fc378daa952ba7f163c4a11628f55a4df523b3ef",
            "0x00000000000000000000000030641013934ec7625c9e73a4d63aab4201004259",
            "0x0000000000000000000000001932e815254c53b3ecd81cecf252a5ac7f0e8bea"
          ],
          "data": "0x0000000000000000000000000000000000000000000000002caa1c72d58544c7",
          "blockHash": "0x8231a46d36de93e03d7117c38078d845ac62aa52c361c6110bc82d33851cb8c3",
          "blockNumber": "0x1566d3d",
          "blockTimestamp": "0x681d18bb",
          "transactionHash": "0x50d15c313d85f6fbc36fe2bcb6cb650096efe12863d64671f2e68ec2a73687e5",
          "transactionIndex": "0x11b",
          "logIndex": "0x1d7",
          "removed": false
        },
        {
          "address": "0x30641013934ec7625c9e73a4d63aab4201004259",
          "topics": [
            "0xfc6ecd966b430510beae9124efe7dd517ed5286d7ed0ae258f8556c7a9765a44",
            "0x0000000000000000000000000000000000000000000000000000000000000047",
            "0x0000000000000000000000001932e815254c53b3ecd81cecf252a5ac7f0e8bea"
          ],
          "data": "0x000000000000000000000000000000000000000000000001ffb89c76990eaac700000000000000000000000000000000000000000000026d15d09e3662640000",
          "blockHash": "0x8231a46d36de93e03d7117c38078d845ac62aa52c361c6110bc82d33851cb8c3",
          "blockNumber": "0x1566d3d",
          "blockTimestamp": "0x681d18bb",
          "transactionHash": "0x50d15c313d85f6fbc36fe2bcb6cb650096efe12863d64671f2e68ec2a73687e5",
          "transactionIndex": "0x11b",
          "logIndex": "0x1d8",
          "removed": false
        },
        {
          "address": "0x0b010000b7624eb9b3dfbc279673c76e9d29d5f7",
          "topics": [
            "0xddf252ad1be2c89b69c2b068fc378daa952ba7f163c4a11628f55a4df523b3ef",
            "0x00000000000000000000000030641013934ec7625c9e73a4d63aab4201004259",
            "0x0000000000000000000000001932e815254c53b3ecd81cecf252a5ac7f0e8bea"
          ],
          "data": "0x000000000000000000000000000000000000000000000001ffb89c76990eaac7",
          "blockHash": "0x8231a46d36de93e03d7117c38078d845ac62aa52c361c6110bc82d33851cb8c3",
          "blockNumber": "0x1566d3d",
          "blockTimestamp": "0x681d18bb",
          "transactionHash": "0x50d15c313d85f6fbc36fe2bcb6cb650096efe12863d64671f2e68ec2a73687e5",
          "transactionIndex": "0x11b",
          "logIndex": "0x1d9",
          "removed": false
        },
        {
          "address": "0x30641013934ec7625c9e73a4d63aab4201004259",
          "topics": [
            "0xfc6ecd966b430510beae9124efe7dd517ed5286d7ed0ae258f8556c7a9765a44",
            "0x0000000000000000000000000000000000000000000000000000000000000058",
            "0x0000000000000000000000001932e815254c53b3ecd81cecf252a5ac7f0e8bea"
          ],
          "data": "0x00000000000000000000000000000000000000000000000350fb95951a1652a20000000000000000000000000000000000000000000004066cfd9b4cc1000000",
          "blockHash": "0x8231a46d36de93e03d7117c38078d845ac62aa52c361c6110bc82d33851cb8c3",
          "blockNumber": "0x1566d3d",
          "blockTimestamp": "0x681d18bb",
          "transactionHash": "0x50d15c313d85f6fbc36fe2bcb6cb650096efe12863d64671f2e68ec2a73687e5",
          "transactionIndex": "0x11b",
          "logIndex": "0x1da",
          "removed": false
        },
        {
          "address": "0x0b010000b7624eb9b3dfbc279673c76e9d29d5f7",
          "topics": [
            "0xddf252ad1be2c89b69c2b068fc378daa952ba7f163c4a11628f55a4df523b3ef",
            "0x00000000000000000000000030641013934ec7625c9e73a4d63aab4201004259",
            "0x0000000000000000000000001932e815254c53b3ecd81cecf252a5ac7f0e8bea"
          ],
          "data": "0x00000000000000000000000000000000000000000000000350fb95951a1652a2",
          "blockHash": "0x8231a46d36de93e03d7117c38078d845ac62aa52c361c6110bc82d33851cb8c3",
          "blockNumber": "0x1566d3d",
          "blockTimestamp": "0x681d18bb",
          "transactionHash": "0x50d15c313d85f6fbc36fe2bcb6cb650096efe12863d64671f2e68ec2a73687e5",
          "transactionIndex": "0x11b",
          "logIndex": "0x1db",
          "removed": false
        },
        {
          "address": "0x30641013934ec7625c9e73a4d63aab4201004259",
          "topics": [
            "0xfc6ecd966b430510beae9124efe7dd517ed5286d7ed0ae258f8556c7a9765a44",
            "0x000000000000000000000000000000000000000000000000000000000000005c",
            "0x0000000000000000000000001932e815254c53b3ecd81cecf252a5ac7f0e8bea"
          ],
          "data": "0x0000000000000000000000000000000000000000000000000905b0c12e34021e00000000000000000000000000000000000000000000000af35029c214e80000",
          "blockHash": "0x8231a46d36de93e03d7117c38078d845ac62aa52c361c6110bc82d33851cb8c3",
          "blockNumber": "0x1566d3d",
          "blockTimestamp": "0x681d18bb",
          "transactionHash": "0x50d15c313d85f6fbc36fe2bcb6cb650096efe12863d64671f2e68ec2a73687e5",
          "transactionIndex": "0x11b",
          "logIndex": "0x1dc",
          "removed": false
        },
        {
          "address": "0x0b010000b7624eb9b3dfbc279673c76e9d29d5f7",
          "topics": [
            "0xddf252ad1be2c89b69c2b068fc378daa952ba7f163c4a11628f55a4df523b3ef",
            "0x00000000000000000000000030641013934ec7625c9e73a4d63aab4201004259",
            "0x0000000000000000000000001932e815254c53b3ecd81cecf252a5ac7f0e8bea"
          ],
          "data": "0x0000000000000000000000000000000000000000000000000905b0c12e34021e",
          "blockHash": "0x8231a46d36de93e03d7117c38078d845ac62aa52c361c6110bc82d33851cb8c3",
          "blockNumber": "0x1566d3d",
          "blockTimestamp": "0x681d18bb",
          "transactionHash": "0x50d15c313d85f6fbc36fe2bcb6cb650096efe12863d64671f2e68ec2a73687e5",
          "transactionIndex": "0x11b",
          "logIndex": "0x1dd",
          "removed": false
        },
        {
          "address": "0x30641013934ec7625c9e73a4d63aab4201004259",
          "topics": [
            "0xfc6ecd966b430510beae9124efe7dd517ed5286d7ed0ae258f8556c7a9765a44",
            "0x000000000000000000000000000000000000000000000000000000000000005e",
            "0x0000000000000000000000001932e815254c53b3ecd81cecf252a5ac7f0e8bea"
          ],
          "data": "0x0000000000000000000000000000000000000000000000002f081e77e571f6c2000000000000000000000000000000000000000000000039154f80f786540000",
          "blockHash": "0x8231a46d36de93e03d7117c38078d845ac62aa52c361c6110bc82d33851cb8c3",
          "blockNumber": "0x1566d3d",
          "blockTimestamp": "0x681d18bb",
          "transactionHash": "0x50d15c313d85f6fbc36fe2bcb6cb650096efe12863d64671f2e68ec2a73687e5",
          "transactionIndex": "0x11b",
          "logIndex": "0x1de",
          "removed": false
        },
        {
          "address": "0x0b010000b7624eb9b3dfbc279673c76e9d29d5f7",
          "topics": [
            "0xddf252ad1be2c89b69c2b068fc378daa952ba7f163c4a11628f55a4df523b3ef",
            "0x00000000000000000000000030641013934ec7625c9e73a4d63aab4201004259",
            "0x0000000000000000000000001932e815254c53b3ecd81cecf252a5ac7f0e8bea"
          ],
          "data": "0x0000000000000000000000000000000000000000000000002f081e77e571f6c2",
          "blockHash": "0x8231a46d36de93e03d7117c38078d845ac62aa52c361c6110bc82d33851cb8c3",
          "blockNumber": "0x1566d3d",
          "blockTimestamp": "0x681d18bb",
          "transactionHash": "0x50d15c313d85f6fbc36fe2bcb6cb650096efe12863d64671f2e68ec2a73687e5",
          "transactionIndex": "0x11b",
          "logIndex": "0x1df",
          "removed": false
        },
        {
          "address": "0x30641013934ec7625c9e73a4d63aab4201004259",
          "topics": [
            "0xfc6ecd966b430510beae9124efe7dd517ed5286d7ed0ae258f8556c7a9765a44",
            "0x000000000000000000000000000000000000000000000000000000000000006b",
            "0x0000000000000000000000001932e815254c53b3ecd81cecf252a5ac7f0e8bea"
          ],
          "data": "0x0000000000000000000000000000000000000000000000000905b0c12e34021e00000000000000000000000000000000000000000000000af35029c214e80000",
          "blockHash": "0x8231a46d36de93e03d7117c38078d845ac62aa52c361c6110bc82d33851cb8c3",
          "blockNumber": "0x1566d3d",
          "blockTimestamp": "0x681d18bb",
          "transactionHash": "0x50d15c313d85f6fbc36fe2bcb6cb650096efe12863d64671f2e68ec2a73687e5",
          "transactionIndex": "0x11b",
          "logIndex": "0x1e0",
          "removed": false
        },
        {
          "address": "0x0b010000b7624eb9b3dfbc279673c76e9d29d5f7",
          "topics": [
            "0xddf252ad1be2c89b69c2b068fc378daa952ba7f163c4a11628f55a4df523b3ef",
            "0x00000000000000000000000030641013934ec7625c9e73a4d63aab4201004259",
            "0x0000000000000000000000001932e815254c53b3ecd81cecf252a5ac7f0e8bea"
          ],
          "data": "0x0000000000000000000000000000000000000000000000000905b0c12e34021e",
          "blockHash": "0x8231a46d36de93e03d7117c38078d845ac62aa52c361c6110bc82d33851cb8c3",
          "blockNumber": "0x1566d3d",
          "blockTimestamp": "0x681d18bb",
          "transactionHash": "0x50d15c313d85f6fbc36fe2bcb6cb650096efe12863d64671f2e68ec2a73687e5",
          "transactionIndex": "0x11b",
          "logIndex": "0x1e1",
          "removed": false
        },
        {
          "address": "0x30641013934ec7625c9e73a4d63aab4201004259",
          "topics": [
            "0xfc6ecd966b430510beae9124efe7dd517ed5286d7ed0ae258f8556c7a9765a44",
            "0x0000000000000000000000000000000000000000000000000000000000000076",
            "0x0000000000000000000000001932e815254c53b3ecd81cecf252a5ac7f0e8bea"
          ],
          "data": "0x000000000000000000000000000000000000000000000001bea51c7c5734afc800000000000000000000000000000000000000000000021e19e0c9bab2400000",
          "blockHash": "0x8231a46d36de93e03d7117c38078d845ac62aa52c361c6110bc82d33851cb8c3",
          "blockNumber": "0x1566d3d",
          "blockTimestamp": "0x681d18bb",
          "transactionHash": "0x50d15c313d85f6fbc36fe2bcb6cb650096efe12863d64671f2e68ec2a73687e5",
          "transactionIndex": "0x11b",
          "logIndex": "0x1e2",
          "removed": false
        },
        {
          "address": "0x0b010000b7624eb9b3dfbc279673c76e9d29d5f7",
          "topics": [
            "0xddf252ad1be2c89b69c2b068fc378daa952ba7f163c4a11628f55a4df523b3ef",
            "0x00000000000000000000000030641013934ec7625c9e73a4d63aab4201004259",
            "0x0000000000000000000000001932e815254c53b3ecd81cecf252a5ac7f0e8bea"
          ],
          "data": "0x000000000000000000000000000000000000000000000001bea51c7c5734afc8",
          "blockHash": "0x8231a46d36de93e03d7117c38078d845ac62aa52c361c6110bc82d33851cb8c3",
          "blockNumber": "0x1566d3d",
          "blockTimestamp": "0x681d18bb",
          "transactionHash": "0x50d15c313d85f6fbc36fe2bcb6cb650096efe12863d64671f2e68ec2a73687e5",
          "transactionIndex": "0x11b",
          "logIndex": "0x1e3",
          "removed": false
        },
        {
          "address": "0x30641013934ec7625c9e73a4d63aab4201004259",
          "topics": [
            "0xfc6ecd966b430510beae9124efe7dd517ed5286d7ed0ae258f8556c7a9765a44",
            "0x00000000000000000000000000000000000000000000000000000000000000a6",
            "0x0000000000000000000000001932e815254c53b3ecd81cecf252a5ac7f0e8bea"
          ],
          "data": "0x000000000000000000000000000000000000000000000000b9a02a74cd68541d0000000000000000000000000000000000000000000000e14c160c917b700000",
          "blockHash": "0x8231a46d36de93e03d7117c38078d845ac62aa52c361c6110bc82d33851cb8c3",
          "blockNumber": "0x1566d3d",
          "blockTimestamp": "0x681d18bb",
          "transactionHash": "0x50d15c313d85f6fbc36fe2bcb6cb650096efe12863d64671f2e68ec2a73687e5",
          "transactionIndex": "0x11b",
          "logIndex": "0x1e4",
          "removed": false
        },
        {
          "address": "0x0b010000b7624eb9b3dfbc279673c76e9d29d5f7",
          "topics": [
            "0xddf252ad1be2c89b69c2b068fc378daa952ba7f163c4a11628f55a4df523b3ef",
            "0x00000000000000000000000030641013934ec7625c9e73a4d63aab4201004259",
            "0x0000000000000000000000001932e815254c53b3ecd81cecf252a5ac7f0e8bea"
          ],
          "data": "0x000000000000000000000000000000000000000000000000b9a02a74cd68541d",
          "blockHash": "0x8231a46d36de93e03d7117c38078d845ac62aa52c361c6110bc82d33851cb8c3",
          "blockNumber": "0x1566d3d",
          "blockTimestamp": "0x681d18bb",
          "transactionHash": "0x50d15c313d85f6fbc36fe2bcb6cb650096efe12863d64671f2e68ec2a73687e5",
          "transactionIndex": "0x11b",
          "logIndex": "0x1e5",
          "removed": false
        },
        {
          "address": "0x30641013934ec7625c9e73a4d63aab4201004259",
          "topics": [
            "0xfc6ecd966b430510beae9124efe7dd517ed5286d7ed0ae258f8556c7a9765a44",
            "0x00000000000000000000000000000000000000000000000000000000000000ad",
            "0x0000000000000000000000001932e815254c53b3ecd81cecf252a5ac7f0e8bea"
          ],
          "data": "0x0000000000000000000000000000000000000000000000003283facca11b974200000000000000000000000000000000000000000000003d4fc72bb486cc0000",
          "blockHash": "0x8231a46d36de93e03d7117c38078d845ac62aa52c361c6110bc82d33851cb8c3",
          "blockNumber": "0x1566d3d",
          "blockTimestamp": "0x681d18bb",
          "transactionHash": "0x50d15c313d85f6fbc36fe2bcb6cb650096efe12863d64671f2e68ec2a73687e5",
          "transactionIndex": "0x11b",
          "logIndex": "0x1e6",
          "removed": false
        },
        {
          "address": "0x0b010000b7624eb9b3dfbc279673c76e9d29d5f7",
          "topics": [
            "0xddf252ad1be2c89b69c2b068fc378daa952ba7f163c4a11628f55a4df523b3ef",
            "0x00000000000000000000000030641013934ec7625c9e73a4d63aab4201004259",
            "0x0000000000000000000000001932e815254c53b3ecd81cecf252a5ac7f0e8bea"
          ],
          "data": "0x0000000000000000000000000000000000000000000000003283facca11b9742",
          "blockHash": "0x8231a46d36de93e03d7117c38078d845ac62aa52c361c6110bc82d33851cb8c3",
          "blockNumber": "0x1566d3d",
          "blockTimestamp": "0x681d18bb",
          "transactionHash": "0x50d15c313d85f6fbc36fe2bcb6cb650096efe12863d64671f2e68ec2a73687e5",
          "transactionIndex": "0x11b",
          "logIndex": "0x1e7",
          "removed": false
        },
        {
          "address": "0x30641013934ec7625c9e73a4d63aab4201004259",
          "topics": [
            "0xfc6ecd966b430510beae9124efe7dd517ed5286d7ed0ae258f8556c7a9765a44",
            "0x00000000000000000000000000000000000000000000000000000000000000b6",
            "0x0000000000000000000000001932e815254c53b3ecd81cecf252a5ac7f0e8bea"
          ],
          "data": "0x00000000000000000000000000000000000000000000000022f8e8b50d1319f300000000000000000000000000000000000000000000002a724ecf7cfadc0000",
          "blockHash": "0x8231a46d36de93e03d7117c38078d845ac62aa52c361c6110bc82d33851cb8c3",
          "blockNumber": "0x1566d3d",
          "blockTimestamp": "0x681d18bb",
          "transactionHash": "0x50d15c313d85f6fbc36fe2bcb6cb650096efe12863d64671f2e68ec2a73687e5",
          "transactionIndex": "0x11b",
          "logIndex": "0x1e8",
          "removed": false
        },
        {
          "address": "0x0b010000b7624eb9b3dfbc279673c76e9d29d5f7",
          "topics": [
            "0xddf252ad1be2c89b69c2b068fc378daa952ba7f163c4a11628f55a4df523b3ef",
            "0x00000000000000000000000030641013934ec7625c9e73a4d63aab4201004259",
            "0x0000000000000000000000001932e815254c53b3ecd81cecf252a5ac7f0e8bea"
          ],
          "data": "0x00000000000000000000000000000000000000000000000022f8e8b50d1319f3",
          "blockHash": "0x8231a46d36de93e03d7117c38078d845ac62aa52c361c6110bc82d33851cb8c3",
          "blockNumber": "0x1566d3d",
          "blockTimestamp": "0x681d18bb",
          "transactionHash": "0x50d15c313d85f6fbc36fe2bcb6cb650096efe12863d64671f2e68ec2a73687e5",
          "transactionIndex": "0x11b",
          "logIndex": "0x1e9",
          "removed": false
        },
        {
          "address": "0x30641013934ec7625c9e73a4d63aab4201004259",
          "topics": [
            "0xfc6ecd966b430510beae9124efe7dd517ed5286d7ed0ae258f8556c7a9765a44",
            "0x00000000000000000000000000000000000000000000000000000000000000b7",
            "0x0000000000000000000000001932e815254c53b3ecd81cecf252a5ac7f0e8bea"
          ],
          "data": "0x000000000000000000000000000000000000000000000000df528e3e2b9a57e400000000000000000000000000000000000000000000010f0cf064dd59200000",
          "blockHash": "0x8231a46d36de93e03d7117c38078d845ac62aa52c361c6110bc82d33851cb8c3",
          "blockNumber": "0x1566d3d",
          "blockTimestamp": "0x681d18bb",
          "transactionHash": "0x50d15c313d85f6fbc36fe2bcb6cb650096efe12863d64671f2e68ec2a73687e5",
          "transactionIndex": "0x11b",
          "logIndex": "0x1ea",
          "removed": false
        },
        {
          "address": "0x0b010000b7624eb9b3dfbc279673c76e9d29d5f7",
          "topics": [
            "0xddf252ad1be2c89b69c2b068fc378daa952ba7f163c4a11628f55a4df523b3ef",
            "0x00000000000000000000000030641013934ec7625c9e73a4d63aab4201004259",
            "0x0000000000000000000000001932e815254c53b3ecd81cecf252a5ac7f0e8bea"
          ],
          "data": "0x000000000000000000000000000000000000000000000000df528e3e2b9a57e4",
          "blockHash": "0x8231a46d36de93e03d7117c38078d845ac62aa52c361c6110bc82d33851cb8c3",
          "blockNumber": "0x1566d3d",
          "blockTimestamp": "0x681d18bb",
          "transactionHash": "0x50d15c313d85f6fbc36fe2bcb6cb650096efe12863d64671f2e68ec2a73687e5",
          "transactionIndex": "0x11b",
          "logIndex": "0x1eb",
          "removed": false
        },
        {
          "address": "0x30641013934ec7625c9e73a4d63aab4201004259",
          "topics": [
            "0xfc6ecd966b430510beae9124efe7dd517ed5286d7ed0ae258f8556c7a9765a44",
            "0x00000000000000000000000000000000000000000000000000000000000000b9",
            "0x0000000000000000000000001932e815254c53b3ecd81cecf252a5ac7f0e8bea"
          ],
          "data": "0x00000000000000000000000000000000000000000000000020c8a3379dbf83e4000000000000000000000000000000000000000000000027ca4bd719f0b80000",
          "blockHash": "0x8231a46d36de93e03d7117c38078d845ac62aa52c361c6110bc82d33851cb8c3",
          "blockNumber": "0x1566d3d",
          "blockTimestamp": "0x681d18bb",
          "transactionHash": "0x50d15c313d85f6fbc36fe2bcb6cb650096efe12863d64671f2e68ec2a73687e5",
          "transactionIndex": "0x11b",
          "logIndex": "0x1ec",
          "removed": false
        },
        {
          "address": "0x0b010000b7624eb9b3dfbc279673c76e9d29d5f7",
          "topics": [
            "0xddf252ad1be2c89b69c2b068fc378daa952ba7f163c4a11628f55a4df523b3ef",
            "0x00000000000000000000000030641013934ec7625c9e73a4d63aab4201004259",
            "0x0000000000000000000000001932e815254c53b3ecd81cecf252a5ac7f0e8bea"
          ],
          "data": "0x00000000000000000000000000000000000000000000000020c8a3379dbf83e4",
          "blockHash": "0x8231a46d36de93e03d7117c38078d845ac62aa52c361c6110bc82d33851cb8c3",
          "blockNumber": "0x1566d3d",
          "blockTimestamp": "0x681d18bb",
          "transactionHash": "0x50d15c313d85f6fbc36fe2bcb6cb650096efe12863d64671f2e68ec2a73687e5",
          "transactionIndex": "0x11b",
          "logIndex": "0x1ed",
          "removed": false
        },
        {
          "address": "0x30641013934ec7625c9e73a4d63aab4201004259",
          "topics": [
            "0xfc6ecd966b430510beae9124efe7dd517ed5286d7ed0ae258f8556c7a9765a44",
            "0x00000000000000000000000000000000000000000000000000000000000000ba",
            "0x0000000000000000000000001932e815254c53b3ecd81cecf252a5ac7f0e8bea"
          ],
          "data": "0x00000000000000000000000000000000000000000000000022f8e8b50d1319f300000000000000000000000000000000000000000000002a724ecf7cfadc0000",
          "blockHash": "0x8231a46d36de93e03d7117c38078d845ac62aa52c361c6110bc82d33851cb8c3",
          "blockNumber": "0x1566d3d",
          "blockTimestamp": "0x681d18bb",
          "transactionHash": "0x50d15c313d85f6fbc36fe2bcb6cb650096efe12863d64671f2e68ec2a73687e5",
          "transactionIndex": "0x11b",
          "logIndex": "0x1ee",
          "removed": false
        },
        {
          "address": "0x0b010000b7624eb9b3dfbc279673c76e9d29d5f7",
          "topics": [
            "0xddf252ad1be2c89b69c2b068fc378daa952ba7f163c4a11628f55a4df523b3ef",
            "0x00000000000000000000000030641013934ec7625c9e73a4d63aab4201004259",
            "0x0000000000000000000000001932e815254c53b3ecd81cecf252a5ac7f0e8bea"
          ],
          "data": "0x00000000000000000000000000000000000000000000000022f8e8b50d1319f3",
          "blockHash": "0x8231a46d36de93e03d7117c38078d845ac62aa52c361c6110bc82d33851cb8c3",
          "blockNumber": "0x1566d3d",
          "blockTimestamp": "0x681d18bb",
          "transactionHash": "0x50d15c313d85f6fbc36fe2bcb6cb650096efe12863d64671f2e68ec2a73687e5",
          "transactionIndex": "0x11b",
          "logIndex": "0x1ef",
          "removed": false
        },
        {
          "address": "0x30641013934ec7625c9e73a4d63aab4201004259",
          "topics": [
            "0xfc6ecd966b430510beae9124efe7dd517ed5286d7ed0ae258f8556c7a9765a44",
            "0x00000000000000000000000000000000000000000000000000000000000000bb",
            "0x0000000000000000000000001932e815254c53b3ecd81cecf252a5ac7f0e8bea"
          ],
          "data": "0x0000000000000000000000000000000000000000000000008ed1c79044a81cec0000000000000000000000000000000000000000000000ad57b1b4a3e5dd6af7",
          "blockHash": "0x8231a46d36de93e03d7117c38078d845ac62aa52c361c6110bc82d33851cb8c3",
          "blockNumber": "0x1566d3d",
          "blockTimestamp": "0x681d18bb",
          "transactionHash": "0x50d15c313d85f6fbc36fe2bcb6cb650096efe12863d64671f2e68ec2a73687e5",
          "transactionIndex": "0x11b",
          "logIndex": "0x1f0",
          "removed": false
        },
        {
          "address": "0x0b010000b7624eb9b3dfbc279673c76e9d29d5f7",
          "topics": [
            "0xddf252ad1be2c89b69c2b068fc378daa952ba7f163c4a11628f55a4df523b3ef",
            "0x00000000000000000000000030641013934ec7625c9e73a4d63aab4201004259",
            "0x0000000000000000000000001932e815254c53b3ecd81cecf252a5ac7f0e8bea"
          ],
          "data": "0x0000000000000000000000000000000000000000000000008ed1c79044a81cec",
          "blockHash": "0x8231a46d36de93e03d7117c38078d845ac62aa52c361c6110bc82d33851cb8c3",
          "blockNumber": "0x1566d3d",
          "blockTimestamp": "0x681d18bb",
          "transactionHash": "0x50d15c313d85f6fbc36fe2bcb6cb650096efe12863d64671f2e68ec2a73687e5",
          "transactionIndex": "0x11b",
          "logIndex": "0x1f1",
          "removed": false
        },
        {
          "address": "0x30641013934ec7625c9e73a4d63aab4201004259",
          "topics": [
            "0xfc6ecd966b430510beae9124efe7dd517ed5286d7ed0ae258f8556c7a9765a44",
            "0x00000000000000000000000000000000000000000000000000000000000000bd",
            "0x0000000000000000000000001932e815254c53b3ecd81cecf252a5ac7f0e8bea"
          ],
          "data": "0x00000000000000000000000000000000000000000000000217701fcb2073e592000000000000000000000000000000000000000000000289deeb94da96d00000",
          "blockHash": "0x8231a46d36de93e03d7117c38078d845ac62aa52c361c6110bc82d33851cb8c3",
          "blockNumber": "0x1566d3d",
          "blockTimestamp": "0x681d18bb",
          "transactionHash": "0x50d15c313d85f6fbc36fe2bcb6cb650096efe12863d64671f2e68ec2a73687e5",
          "transactionIndex": "0x11b",
          "logIndex": "0x1f2",
          "removed": false
        },
        {
          "address": "0x0b010000b7624eb9b3dfbc279673c76e9d29d5f7",
          "topics": [
            "0xddf252ad1be2c89b69c2b068fc378daa952ba7f163c4a11628f55a4df523b3ef",
            "0x00000000000000000000000030641013934ec7625c9e73a4d63aab4201004259",
            "0x0000000000000000000000001932e815254c53b3ecd81cecf252a5ac7f0e8bea"
          ],
          "data": "0x00000000000000000000000000000000000000000000000217701fcb2073e592",
          "blockHash": "0x8231a46d36de93e03d7117c38078d845ac62aa52c361c6110bc82d33851cb8c3",
          "blockNumber": "0x1566d3d",
          "blockTimestamp": "0x681d18bb",
          "transactionHash": "0x50d15c313d85f6fbc36fe2bcb6cb650096efe12863d64671f2e68ec2a73687e5",
          "transactionIndex": "0x11b",
          "logIndex": "0x1f3",
          "removed": false
        },
        {
          "address": "0x30641013934ec7625c9e73a4d63aab4201004259",
          "topics": [
            "0xfc6ecd966b430510beae9124efe7dd517ed5286d7ed0ae258f8556c7a9765a44",
            "0x00000000000000000000000000000000000000000000000000000000000000bf",
            "0x0000000000000000000000001932e815254c53b3ecd81cecf252a5ac7f0e8bea"
          ],
          "data": "0x000000000000000000000000000000000000000000000000cebf168db80126690000000000000000000000000000000000000000000000faee90cc613568407d",
          "blockHash": "0x8231a46d36de93e03d7117c38078d845ac62aa52c361c6110bc82d33851cb8c3",
          "blockNumber": "0x1566d3d",
          "blockTimestamp": "0x681d18bb",
          "transactionHash": "0x50d15c313d85f6fbc36fe2bcb6cb650096efe12863d64671f2e68ec2a73687e5",
          "transactionIndex": "0x11b",
          "logIndex": "0x1f4",
          "removed": false
        },
        {
          "address": "0x0b010000b7624eb9b3dfbc279673c76e9d29d5f7",
          "topics": [
            "0xddf252ad1be2c89b69c2b068fc378daa952ba7f163c4a11628f55a4df523b3ef",
            "0x00000000000000000000000030641013934ec7625c9e73a4d63aab4201004259",
            "0x0000000000000000000000001932e815254c53b3ecd81cecf252a5ac7f0e8bea"
          ],
          "data": "0x000000000000000000000000000000000000000000000000cebf168db8012669",
          "blockHash": "0x8231a46d36de93e03d7117c38078d845ac62aa52c361c6110bc82d33851cb8c3",
          "blockNumber": "0x1566d3d",
          "blockTimestamp": "0x681d18bb",
          "transactionHash": "0x50d15c313d85f6fbc36fe2bcb6cb650096efe12863d64671f2e68ec2a73687e5",
          "transactionIndex": "0x11b",
          "logIndex": "0x1f5",
          "removed": false
        },
        {
          "address": "0x30641013934ec7625c9e73a4d63aab4201004259",
          "topics": [
            "0xfc6ecd966b430510beae9124efe7dd517ed5286d7ed0ae258f8556c7a9765a44",
            "0x00000000000000000000000000000000000000000000000000000000000000c0",
            "0x0000000000000000000000001932e815254c53b3ecd81cecf252a5ac7f0e8bea"
          ],
          "data": "0x0000000000000000000000000000000000000000000000000905b0c12e34021e00000000000000000000000000000000000000000000000af35029c214e80000",
          "blockHash": "0x8231a46d36de93e03d7117c38078d845ac62aa52c361c6110bc82d33851cb8c3",
          "blockNumber": "0x1566d3d",
          "blockTimestamp": "0x681d18bb",
          "transactionHash": "0x50d15c313d85f6fbc36fe2bcb6cb650096efe12863d64671f2e68ec2a73687e5",
          "transactionIndex": "0x11b",
          "logIndex": "0x1f6",
          "removed": false
        },
        {
          "address": "0x0b010000b7624eb9b3dfbc279673c76e9d29d5f7",
          "topics": [
            "0xddf252ad1be2c89b69c2b068fc378daa952ba7f163c4a11628f55a4df523b3ef",
            "0x00000000000000000000000030641013934ec7625c9e73a4d63aab4201004259",
            "0x0000000000000000000000001932e815254c53b3ecd81cecf252a5ac7f0e8bea"
          ],
          "data": "0x0000000000000000000000000000000000000000000000000905b0c12e34021e",
          "blockHash": "0x8231a46d36de93e03d7117c38078d845ac62aa52c361c6110bc82d33851cb8c3",
          "blockNumber": "0x1566d3d",
          "blockTimestamp": "0x681d18bb",
          "transactionHash": "0x50d15c313d85f6fbc36fe2bcb6cb650096efe12863d64671f2e68ec2a73687e5",
          "transactionIndex": "0x11b",
          "logIndex": "0x1f7",
          "removed": false
        },
        {
          "address": "0x30641013934ec7625c9e73a4d63aab4201004259",
          "topics": [
            "0xfc6ecd966b430510beae9124efe7dd517ed5286d7ed0ae258f8556c7a9765a44",
            "0x00000000000000000000000000000000000000000000000000000000000000c2",
            "0x0000000000000000000000001932e815254c53b3ecd81cecf252a5ac7f0e8bea"
          ],
          "data": "0x00000000000000000000000000000000000000000000000017452c0175e674fc00000000000000000000000000000000000000000000001c3e53d39faa840000",
          "blockHash": "0x8231a46d36de93e03d7117c38078d845ac62aa52c361c6110bc82d33851cb8c3",
          "blockNumber": "0x1566d3d",
          "blockTimestamp": "0x681d18bb",
          "transactionHash": "0x50d15c313d85f6fbc36fe2bcb6cb650096efe12863d64671f2e68ec2a73687e5",
          "transactionIndex": "0x11b",
          "logIndex": "0x1f8",
          "removed": false
        },
        {
          "address": "0x0b010000b7624eb9b3dfbc279673c76e9d29d5f7",
          "topics": [
            "0xddf252ad1be2c89b69c2b068fc378daa952ba7f163c4a11628f55a4df523b3ef",
            "0x00000000000000000000000030641013934ec7625c9e73a4d63aab4201004259",
            "0x0000000000000000000000001932e815254c53b3ecd81cecf252a5ac7f0e8bea"
          ],
          "data": "0x00000000000000000000000000000000000000000000000017452c0175e674fc",
          "blockHash": "0x8231a46d36de93e03d7117c38078d845ac62aa52c361c6110bc82d33851cb8c3",
          "blockNumber": "0x1566d3d",
          "blockTimestamp": "0x681d18bb",
          "transactionHash": "0x50d15c313d85f6fbc36fe2bcb6cb650096efe12863d64671f2e68ec2a73687e5",
          "transactionIndex": "0x11b",
          "logIndex": "0x1f9",
          "removed": false
        },
        {
          "address": "0x30641013934ec7625c9e73a4d63aab4201004259",
          "topics": [
            "0xfc6ecd966b430510beae9124efe7dd517ed5286d7ed0ae258f8556c7a9765a44",
            "0x00000000000000000000000000000000000000000000000000000000000000c5",
            "0x0000000000000000000000001932e815254c53b3ecd81cecf252a5ac7f0e8bea"
          ],
          "data": "0x000000000000000000000000000000000000000000000000204adcc2a41a771a00000000000000000000000000000000000000000000002731a3fd61bf6c0000",
          "blockHash": "0x8231a46d36de93e03d7117c38078d845ac62aa52c361c6110bc82d33851cb8c3",
          "blockNumber": "0x1566d3d",
          "blockTimestamp": "0x681d18bb",
          "transactionHash": "0x50d15c313d85f6fbc36fe2bcb6cb650096efe12863d64671f2e68ec2a73687e5",
          "transactionIndex": "0x11b",
          "logIndex": "0x1fa",
          "removed": false
        },
        {
          "address": "0x0b010000b7624eb9b3dfbc279673c76e9d29d5f7",
          "topics": [
            "0xddf252ad1be2c89b69c2b068fc378daa952ba7f163c4a11628f55a4df523b3ef",
            "0x00000000000000000000000030641013934ec7625c9e73a4d63aab4201004259",
            "0x0000000000000000000000001932e815254c53b3ecd81cecf252a5ac7f0e8bea"
          ],
          "data": "0x000000000000000000000000000000000000000000000000204adcc2a41a771a",
          "blockHash": "0x8231a46d36de93e03d7117c38078d845ac62aa52c361c6110bc82d33851cb8c3",
          "blockNumber": "0x1566d3d",
          "blockTimestamp": "0x681d18bb",
          "transactionHash": "0x50d15c313d85f6fbc36fe2bcb6cb650096efe12863d64671f2e68ec2a73687e5",
          "transactionIndex": "0x11b",
          "logIndex": "0x1fb",
          "removed": false
        },
        {
          "address": "0x30641013934ec7625c9e73a4d63aab4201004259",
          "topics": [
            "0xfc6ecd966b430510beae9124efe7dd517ed5286d7ed0ae258f8556c7a9765a44",
            "0x00000000000000000000000000000000000000000000000000000000000000c6",
            "0x0000000000000000000000001932e815254c53b3ecd81cecf252a5ac7f0e8bea"
          ],
          "data": "0x0000000000000000000000000000000000000000000000000c0f35c2d85edccf00000000000000000000000000000000000000000000000ea300b17a8b780000",
          "blockHash": "0x8231a46d36de93e03d7117c38078d845ac62aa52c361c6110bc82d33851cb8c3",
          "blockNumber": "0x1566d3d",
          "blockTimestamp": "0x681d18bb",
          "transactionHash": "0x50d15c313d85f6fbc36fe2bcb6cb650096efe12863d64671f2e68ec2a73687e5",
          "transactionIndex": "0x11b",
          "logIndex": "0x1fc",
          "removed": false
        },
        {
          "address": "0x0b010000b7624eb9b3dfbc279673c76e9d29d5f7",
          "topics": [
            "0xddf252ad1be2c89b69c2b068fc378daa952ba7f163c4a11628f55a4df523b3ef",
            "0x00000000000000000000000030641013934ec7625c9e73a4d63aab4201004259",
            "0x0000000000000000000000001932e815254c53b3ecd81cecf252a5ac7f0e8bea"
          ],
          "data": "0x0000000000000000000000000000000000000000000000000c0f35c2d85edccf",
          "blockHash": "0x8231a46d36de93e03d7117c38078d845ac62aa52c361c6110bc82d33851cb8c3",
          "blockNumber": "0x1566d3d",
          "blockTimestamp": "0x681d18bb",
          "transactionHash": "0x50d15c313d85f6fbc36fe2bcb6cb650096efe12863d64671f2e68ec2a73687e5",
          "transactionIndex": "0x11b",
          "logIndex": "0x1fd",
          "removed": false
        },
        {
          "address": "0x30641013934ec7625c9e73a4d63aab4201004259",
          "topics": [
            "0xfc6ecd966b430510beae9124efe7dd517ed5286d7ed0ae258f8556c7a9765a44",
            "0x00000000000000000000000000000000000000000000000000000000000000c7",
            "0x0000000000000000000000001932e815254c53b3ecd81cecf252a5ac7f0e8bea"
          ],
          "data": "0x000000000000000000000000000000000000000000000000ed8ded1b45b8c9a700000000000000000000000000000000000000000000012052f6c180c1151fe1",
          "blockHash": "0x8231a46d36de93e03d7117c38078d845ac62aa52c361c6110bc82d33851cb8c3",
          "blockNumber": "0x1566d3d",
          "blockTimestamp": "0x681d18bb",
          "transactionHash": "0x50d15c313d85f6fbc36fe2bcb6cb650096efe12863d64671f2e68ec2a73687e5",
          "transactionIndex": "0x11b",
          "logIndex": "0x1fe",
          "removed": false
        },
        {
          "address": "0x0b010000b7624eb9b3dfbc279673c76e9d29d5f7",
          "topics": [
            "0xddf252ad1be2c89b69c2b068fc378daa952ba7f163c4a11628f55a4df523b3ef",
            "0x00000000000000000000000030641013934ec7625c9e73a4d63aab4201004259",
            "0x0000000000000000000000001932e815254c53b3ecd81cecf252a5ac7f0e8bea"
          ],
          "data": "0x000000000000000000000000000000000000000000000000ed8ded1b45b8c9a7",
          "blockHash": "0x8231a46d36de93e03d7117c38078d845ac62aa52c361c6110bc82d33851cb8c3",
          "blockNumber": "0x1566d3d",
          "blockTimestamp": "0x681d18bb",
          "transactionHash": "0x50d15c313d85f6fbc36fe2bcb6cb650096efe12863d64671f2e68ec2a73687e5",
          "transactionIndex": "0x11b",
          "logIndex": "0x1ff",
          "removed": false
        },
        {
          "address": "0x30641013934ec7625c9e73a4d63aab4201004259",
          "topics": [
            "0xfc6ecd966b430510beae9124efe7dd517ed5286d7ed0ae258f8556c7a9765a44",
            "0x00000000000000000000000000000000000000000000000000000000000000cc",
            "0x0000000000000000000000001932e815254c53b3ecd81cecf252a5ac7f0e8bea"
          ],
          "data": "0x00000000000000000000000000000000000000000000000018078d41e0712ba800000000000000000000000000000000000000000000001d2a3ff58dc8280000",
          "blockHash": "0x8231a46d36de93e03d7117c38078d845ac62aa52c361c6110bc82d33851cb8c3",
          "blockNumber": "0x1566d3d",
          "blockTimestamp": "0x681d18bb",
          "transactionHash": "0x50d15c313d85f6fbc36fe2bcb6cb650096efe12863d64671f2e68ec2a73687e5",
          "transactionIndex": "0x11b",
          "logIndex": "0x200",
          "removed": false
        },
        {
          "address": "0x0b010000b7624eb9b3dfbc279673c76e9d29d5f7",
          "topics": [
            "0xddf252ad1be2c89b69c2b068fc378daa952ba7f163c4a11628f55a4df523b3ef",
            "0x00000000000000000000000030641013934ec7625c9e73a4d63aab4201004259",
            "0x0000000000000000000000001932e815254c53b3ecd81cecf252a5ac7f0e8bea"
          ],
          "data": "0x00000000000000000000000000000000000000000000000018078d41e0712ba8",
          "blockHash": "0x8231a46d36de93e03d7117c38078d845ac62aa52c361c6110bc82d33851cb8c3",
          "blockNumber": "0x1566d3d",
          "blockTimestamp": "0x681d18bb",
          "transactionHash": "0x50d15c313d85f6fbc36fe2bcb6cb650096efe12863d64671f2e68ec2a73687e5",
          "transactionIndex": "0x11b",
          "logIndex": "0x201",
          "removed": false
        },
        {
          "address": "0x30641013934ec7625c9e73a4d63aab4201004259",
          "topics": [
            "0xfc6ecd966b430510beae9124efe7dd517ed5286d7ed0ae258f8556c7a9765a44",
            "0x00000000000000000000000000000000000000000000000000000000000000ce",
            "0x0000000000000000000000001932e815254c53b3ecd81cecf252a5ac7f0e8bea"
          ],
          "data": "0x00000000000000000000000000000000000000000000000000725753117ec5ce0000000000000000000000000000000000000000000000008ac7230489e80000",
          "blockHash": "0x8231a46d36de93e03d7117c38078d845ac62aa52c361c6110bc82d33851cb8c3",
          "blockNumber": "0x1566d3d",
          "blockTimestamp": "0x681d18bb",
          "transactionHash": "0x50d15c313d85f6fbc36fe2bcb6cb650096efe12863d64671f2e68ec2a73687e5",
          "transactionIndex": "0x11b",
          "logIndex": "0x202",
          "removed": false
        },
        {
          "address": "0x0b010000b7624eb9b3dfbc279673c76e9d29d5f7",
          "topics": [
            "0xddf252ad1be2c89b69c2b068fc378daa952ba7f163c4a11628f55a4df523b3ef",
            "0x00000000000000000000000030641013934ec7625c9e73a4d63aab4201004259",
            "0x0000000000000000000000001932e815254c53b3ecd81cecf252a5ac7f0e8bea"
          ],
          "data": "0x00000000000000000000000000000000000000000000000000725753117ec5ce",
          "blockHash": "0x8231a46d36de93e03d7117c38078d845ac62aa52c361c6110bc82d33851cb8c3",
          "blockNumber": "0x1566d3d",
          "blockTimestamp": "0x681d18bb",
          "transactionHash": "0x50d15c313d85f6fbc36fe2bcb6cb650096efe12863d64671f2e68ec2a73687e5",
          "transactionIndex": "0x11b",
          "logIndex": "0x203",
          "removed": false
        },
        {
          "address": "0x30641013934ec7625c9e73a4d63aab4201004259",
          "topics": [
            "0xfc6ecd966b430510beae9124efe7dd517ed5286d7ed0ae258f8556c7a9765a44",
            "0x00000000000000000000000000000000000000000000000000000000000000cf",
            "0x0000000000000000000000001932e815254c53b3ecd81cecf252a5ac7f0e8bea"
          ],
          "data": "0x0000000000000000000000000000000000000000000000005ac21d22afd368f100000000000000000000000000000000000000000000006e27aa3200a9c00000",
          "blockHash": "0x8231a46d36de93e03d7117c38078d845ac62aa52c361c6110bc82d33851cb8c3",
          "blockNumber": "0x1566d3d",
          "blockTimestamp": "0x681d18bb",
          "transactionHash": "0x50d15c313d85f6fbc36fe2bcb6cb650096efe12863d64671f2e68ec2a73687e5",
          "transactionIndex": "0x11b",
          "logIndex": "0x204",
          "removed": false
        },
        {
          "address": "0x0b010000b7624eb9b3dfbc279673c76e9d29d5f7",
          "topics": [
            "0xddf252ad1be2c89b69c2b068fc378daa952ba7f163c4a11628f55a4df523b3ef",
            "0x00000000000000000000000030641013934ec7625c9e73a4d63aab4201004259",
            "0x0000000000000000000000001932e815254c53b3ecd81cecf252a5ac7f0e8bea"
          ],
          "data": "0x0000000000000000000000000000000000000000000000005ac21d22afd368f1",
          "blockHash": "0x8231a46d36de93e03d7117c38078d845ac62aa52c361c6110bc82d33851cb8c3",
          "blockNumber": "0x1566d3d",
          "blockTimestamp": "0x681d18bb",
          "transactionHash": "0x50d15c313d85f6fbc36fe2bcb6cb650096efe12863d64671f2e68ec2a73687e5",
          "transactionIndex": "0x11b",
          "logIndex": "0x205",
          "removed": false
        },
        {
          "address": "0x0b010000b7624eb9b3dfbc279673c76e9d29d5f7",
          "topics": [
            "0xddf252ad1be2c89b69c2b068fc378daa952ba7f163c4a11628f55a4df523b3ef",
            "0x0000000000000000000000001932e815254c53b3ecd81cecf252a5ac7f0e8bea",
            "0x0000000000000000000000004413203299bf8bdf59f6399cd9fe94d321a68822"
          ],
          "data": "0x000000000000000000000000000000000000000000000077f6e81438b3c707dc",
          "blockHash": "0x8231a46d36de93e03d7117c38078d845ac62aa52c361c6110bc82d33851cb8c3",
          "blockNumber": "0x1566d3d",
          "blockTimestamp": "0x681d18bb",
          "transactionHash": "0x50d15c313d85f6fbc36fe2bcb6cb650096efe12863d64671f2e68ec2a73687e5",
          "transactionIndex": "0x11b",
          "logIndex": "0x206",
          "removed": false
        },
        {
          "address": "0x1932e815254c53b3ecd81cecf252a5ac7f0e8bea",
          "topics": [
            "0x3818a3312bf096178ea856052001b3167cdea524874a0c9c9dcd7e1970ee8f92",
            "0x0000000000000000000000004413203299bf8bdf59f6399cd9fe94d321a68822",
            "0x0000000000000000000000004413203299bf8bdf59f6399cd9fe94d321a68822"
          ],
          "data": "0x000000000000000000000000000000000000000000000077f6e81438b3c707dc000000000000000000000000000000000000000000000077432217e68360000000000000000000000000000000000000000000000000000000000000000000000000000000000000000000007e90e03654732abedf89faf87f05bcd03aceefdc",
          "blockHash": "0x8231a46d36de93e03d7117c38078d845ac62aa52c361c6110bc82d33851cb8c3",
          "blockNumber": "0x1566d3d",
          "blockTimestamp": "0x681d18bb",
          "transactionHash": "0x50d15c313d85f6fbc36fe2bcb6cb650096efe12863d64671f2e68ec2a73687e5",
          "transactionIndex": "0x11b",
          "logIndex": "0x207",
          "removed": false
        }
      ],
      "logsBloom": "0x04040080100040100040004000048000800002000010008000000040020000220100000010004a0008002200008110401050200006048090042002360024000000001000000000080002002a03024066184b000000040218004010111002000008000040000a40000940000000000000280000002000020110000210040009000080028440001810030000004008441018001900010700100000004002001000040401800102a000200001800008000002000008008080600021780800804000400000120001008004040000040001040820080080100000410000004000482a2200440200100080000082820000000000100000008004040298008000a00000",
      "type": "0x2",
      "transactionHash": "0x50d15c313d85f6fbc36fe2bcb6cb650096efe12863d64671f2e68ec2a73687e5",
      "transactionIndex": "0x11b",
      "blockHash": "0x8231a46d36de93e03d7117c38078d845ac62aa52c361c6110bc82d33851cb8c3",
      "blockNumber": "0x1566d3d",
      "gasUsed": "0x37aec8",
      "effectiveGasPrice": "0x2147810b1",
      "from": "0x4413203299bf8bdf59f6399cd9fe94d321a68822",
      "to": "0x1932e815254c53b3ecd81cecf252a5ac7f0e8bea",
      "contractAddress": null
    }
  ],
  "libraries": [],
  "pending": [],
  "returns": {},
  "timestamp": 1746737342,
  "chain": 1,
  "commit": "1ba9ae0"
}